{
  "_format": "hh-sol-artifact-1",
  "contractName": "NFT",
  "sourceName": "contracts/NFT.sol",
  "abi": [
    {
      "inputs": [],
      "stateMutability": "nonpayable",
      "type": "constructor"
    },
    {
      "anonymous": false,
      "inputs": [
        {
          "indexed": true,
          "internalType": "address",
          "name": "owner",
          "type": "address"
        },
        {
          "indexed": true,
          "internalType": "address",
          "name": "approved",
          "type": "address"
        },
        {
          "indexed": true,
          "internalType": "uint256",
          "name": "tokenId",
          "type": "uint256"
        }
      ],
      "name": "Approval",
      "type": "event"
    },
    {
      "anonymous": false,
      "inputs": [
        {
          "indexed": true,
          "internalType": "address",
          "name": "owner",
          "type": "address"
        },
        {
          "indexed": true,
          "internalType": "address",
          "name": "operator",
          "type": "address"
        },
        {
          "indexed": false,
          "internalType": "bool",
          "name": "approved",
          "type": "bool"
        }
      ],
      "name": "ApprovalForAll",
      "type": "event"
    },
    {
      "anonymous": false,
      "inputs": [
        {
          "indexed": true,
          "internalType": "address",
          "name": "previousOwner",
          "type": "address"
        },
        {
          "indexed": true,
          "internalType": "address",
          "name": "newOwner",
          "type": "address"
        }
      ],
      "name": "OwnershipTransferred",
      "type": "event"
    },
    {
      "anonymous": false,
      "inputs": [
        {
          "indexed": true,
          "internalType": "address",
          "name": "from",
          "type": "address"
        },
        {
          "indexed": true,
          "internalType": "address",
          "name": "to",
          "type": "address"
        },
        {
          "indexed": true,
          "internalType": "uint256",
          "name": "tokenId",
          "type": "uint256"
        }
      ],
      "name": "Transfer",
      "type": "event"
    },
    {
      "inputs": [],
      "name": "MINT_PRICE",
      "outputs": [
        {
          "internalType": "uint256",
          "name": "",
          "type": "uint256"
        }
      ],
      "stateMutability": "view",
      "type": "function"
    },
    {
      "inputs": [],
      "name": "TOTAL_SUPPLY",
      "outputs": [
        {
          "internalType": "uint256",
          "name": "",
          "type": "uint256"
        }
      ],
      "stateMutability": "view",
      "type": "function"
    },
    {
      "inputs": [
        {
          "internalType": "address",
          "name": "to",
          "type": "address"
        },
        {
          "internalType": "uint256",
          "name": "tokenId",
          "type": "uint256"
        }
      ],
      "name": "approve",
      "outputs": [],
      "stateMutability": "nonpayable",
      "type": "function"
    },
    {
      "inputs": [
        {
          "internalType": "address",
          "name": "owner",
          "type": "address"
        }
      ],
      "name": "balanceOf",
      "outputs": [
        {
          "internalType": "uint256",
          "name": "",
          "type": "uint256"
        }
      ],
      "stateMutability": "view",
      "type": "function"
    },
    {
      "inputs": [],
      "name": "baseTokenURI",
      "outputs": [
        {
          "internalType": "string",
          "name": "",
          "type": "string"
        }
      ],
      "stateMutability": "view",
      "type": "function"
    },
    {
      "inputs": [
        {
          "internalType": "uint256",
          "name": "tokenId",
          "type": "uint256"
        }
      ],
      "name": "getApproved",
      "outputs": [
        {
          "internalType": "address",
          "name": "",
          "type": "address"
        }
      ],
      "stateMutability": "view",
      "type": "function"
    },
    {
      "inputs": [
        {
          "internalType": "address",
          "name": "owner",
          "type": "address"
        },
        {
          "internalType": "address",
          "name": "operator",
          "type": "address"
        }
      ],
      "name": "isApprovedForAll",
      "outputs": [
        {
          "internalType": "bool",
          "name": "",
          "type": "bool"
        }
      ],
      "stateMutability": "view",
      "type": "function"
    },
    {
      "inputs": [
        {
          "internalType": "address",
          "name": "recipient",
          "type": "address"
        }
      ],
      "name": "mintTo",
      "outputs": [
        {
          "internalType": "uint256",
          "name": "",
          "type": "uint256"
        }
      ],
      "stateMutability": "payable",
      "type": "function"
    },
    {
      "inputs": [],
      "name": "name",
      "outputs": [
        {
          "internalType": "string",
          "name": "",
          "type": "string"
        }
      ],
      "stateMutability": "view",
      "type": "function"
    },
    {
      "inputs": [],
      "name": "owner",
      "outputs": [
        {
          "internalType": "address",
          "name": "",
          "type": "address"
        }
      ],
      "stateMutability": "view",
      "type": "function"
    },
    {
      "inputs": [
        {
          "internalType": "uint256",
          "name": "tokenId",
          "type": "uint256"
        }
      ],
      "name": "ownerOf",
      "outputs": [
        {
          "internalType": "address",
          "name": "",
          "type": "address"
        }
      ],
      "stateMutability": "view",
      "type": "function"
    },
    {
      "inputs": [
        {
          "internalType": "address",
          "name": "dest",
          "type": "address"
        }
      ],
      "name": "payments",
      "outputs": [
        {
          "internalType": "uint256",
          "name": "",
          "type": "uint256"
        }
      ],
      "stateMutability": "view",
      "type": "function"
    },
    {
      "inputs": [],
      "name": "renounceOwnership",
      "outputs": [],
      "stateMutability": "nonpayable",
      "type": "function"
    },
    {
      "inputs": [
        {
          "internalType": "address",
          "name": "from",
          "type": "address"
        },
        {
          "internalType": "address",
          "name": "to",
          "type": "address"
        },
        {
          "internalType": "uint256",
          "name": "tokenId",
          "type": "uint256"
        }
      ],
      "name": "safeTransferFrom",
      "outputs": [],
      "stateMutability": "nonpayable",
      "type": "function"
    },
    {
      "inputs": [
        {
          "internalType": "address",
          "name": "from",
          "type": "address"
        },
        {
          "internalType": "address",
          "name": "to",
          "type": "address"
        },
        {
          "internalType": "uint256",
          "name": "tokenId",
          "type": "uint256"
        },
        {
          "internalType": "bytes",
          "name": "_data",
          "type": "bytes"
        }
      ],
      "name": "safeTransferFrom",
      "outputs": [],
      "stateMutability": "nonpayable",
      "type": "function"
    },
    {
      "inputs": [
        {
          "internalType": "address",
          "name": "operator",
          "type": "address"
        },
        {
          "internalType": "bool",
          "name": "approved",
          "type": "bool"
        }
      ],
      "name": "setApprovalForAll",
      "outputs": [],
      "stateMutability": "nonpayable",
      "type": "function"
    },
    {
      "inputs": [
        {
          "internalType": "string",
          "name": "_baseTokenURI",
          "type": "string"
        }
      ],
      "name": "setBaseTokenURI",
      "outputs": [],
      "stateMutability": "nonpayable",
      "type": "function"
    },
    {
      "inputs": [
        {
          "internalType": "bytes4",
          "name": "interfaceId",
          "type": "bytes4"
        }
      ],
      "name": "supportsInterface",
      "outputs": [
        {
          "internalType": "bool",
          "name": "",
          "type": "bool"
        }
      ],
      "stateMutability": "view",
      "type": "function"
    },
    {
      "inputs": [],
      "name": "symbol",
      "outputs": [
        {
          "internalType": "string",
          "name": "",
          "type": "string"
        }
      ],
      "stateMutability": "view",
      "type": "function"
    },
    {
      "inputs": [
        {
          "internalType": "uint256",
          "name": "tokenId",
          "type": "uint256"
        }
      ],
      "name": "tokenURI",
      "outputs": [
        {
          "internalType": "string",
          "name": "",
          "type": "string"
        }
      ],
      "stateMutability": "view",
      "type": "function"
    },
    {
      "inputs": [
        {
          "internalType": "address",
          "name": "from",
          "type": "address"
        },
        {
          "internalType": "address",
          "name": "to",
          "type": "address"
        },
        {
          "internalType": "uint256",
          "name": "tokenId",
          "type": "uint256"
        }
      ],
      "name": "transferFrom",
      "outputs": [],
      "stateMutability": "nonpayable",
      "type": "function"
    },
    {
      "inputs": [
        {
          "internalType": "address",
          "name": "newOwner",
          "type": "address"
        }
      ],
      "name": "transferOwnership",
      "outputs": [],
      "stateMutability": "nonpayable",
      "type": "function"
    },
    {
      "inputs": [
        {
          "internalType": "address payable",
          "name": "payee",
          "type": "address"
        }
      ],
      "name": "withdrawPayments",
      "outputs": [],
      "stateMutability": "nonpayable",
      "type": "function"
    }
  ],
  "bytecode": "0x60a06040523480156200001157600080fd5b506040518060400160405280600d81526020017f5a5a436f6c6c656374696f6e73000000000000000000000000000000000000008152506040518060400160405280600681526020017f5a5a42656172000000000000000000000000000000000000000000000000000081525081600090805190602001906200009692919062000230565b508060019080519060200190620000af92919062000230565b505050604051620000c090620002c1565b604051809103906000f080158015620000dd573d6000803e3d6000fd5b5073ffffffffffffffffffffffffffffffffffffffff1660808173ffffffffffffffffffffffffffffffffffffffff1660601b8152505062000134620001286200016260201b60201c565b6200016a60201b60201c565b60405180602001604052806000815250600890805190602001906200015b92919062000230565b5062000353565b600033905090565b6000600660009054906101000a900473ffffffffffffffffffffffffffffffffffffffff16905081600660006101000a81548173ffffffffffffffffffffffffffffffffffffffff021916908373ffffffffffffffffffffffffffffffffffffffff1602179055508173ffffffffffffffffffffffffffffffffffffffff168173ffffffffffffffffffffffffffffffffffffffff167f8be0079c531659141344cd1fd0a4f28419497f9722a3daafe3b4186f6b6457e060405160405180910390a35050565b8280546200023e90620002ee565b90600052602060002090601f016020900481019282620002625760008555620002ae565b82601f106200027d57805160ff1916838001178555620002ae565b82800160010185558215620002ae579182015b82811115620002ad57825182559160200191906001019062000290565b5b509050620002bd9190620002cf565b5090565b610d09806200384d83390190565b5b80821115620002ea576000816000905550600101620002d0565b5090565b600060028204905060018216806200030757607f821691505b602082108114156200031e576200031d62000324565b5b50919050565b7f4e487b7100000000000000000000000000000000000000000000000000000000600052602260045260246000fd5b60805160601c6134d46200037960003960008181610f69015261168101526134d46000f3fe6080604052600436106101405760003560e01c8063755edd17116100b6578063c002d23d1161006f578063c002d23d1461044b578063c87b56dd14610476578063d547cfb7146104b3578063e2982c21146104de578063e985e9c51461051b578063f2fde38b1461055857610140565b8063755edd17146103485780638da5cb5b14610378578063902d55a5146103a357806395d89b41146103ce578063a22cb465146103f9578063b88d4fde1461042257610140565b806330176e131161010857806330176e131461023c57806331b3eb941461026557806342842e0e1461028e5780636352211e146102b757806370a08231146102f4578063715018a61461033157610140565b806301ffc9a71461014557806306fdde0314610182578063081812fc146101ad578063095ea7b3146101ea57806323b872dd14610213575b600080fd5b34801561015157600080fd5b5061016c600480360381019061016791906123ec565b610581565b60405161017991906128cc565b60405180910390f35b34801561018e57600080fd5b50610197610663565b6040516101a491906128e7565b60405180910390f35b3480156101b957600080fd5b506101d460048036038101906101cf919061247f565b6106f5565b6040516101e1919061284a565b60405180910390f35b3480156101f657600080fd5b50610211600480360381019061020c91906123b0565b61077a565b005b34801561021f57600080fd5b5061023a600480360381019061023591906122aa565b610892565b005b34801561024857600080fd5b50610263600480360381019061025e919061243e565b6108f2565b005b34801561027157600080fd5b5061028c60048036038101906102879190612245565b610988565b005b34801561029a57600080fd5b506102b560048036038101906102b091906122aa565b610a10565b005b3480156102c357600080fd5b506102de60048036038101906102d9919061247f565b610a30565b6040516102eb919061284a565b60405180910390f35b34801561030057600080fd5b5061031b6004803603810190610316919061221c565b610ae2565b6040516103289190612b49565b60405180910390f35b34801561033d57600080fd5b50610346610b9a565b005b610362600480360381019061035d919061221c565b610c22565b60405161036f9190612b49565b60405180910390f35b34801561038457600080fd5b5061038d610ceb565b60405161039a919061284a565b60405180910390f35b3480156103af57600080fd5b506103b8610d15565b6040516103c59190612b49565b60405180910390f35b3480156103da57600080fd5b506103e3610d1a565b6040516103f091906128e7565b60405180910390f35b34801561040557600080fd5b50610420600480360381019061041b9190612374565b610dac565b005b34801561042e57600080fd5b50610449600480360381019061044491906122f9565b610dc2565b005b34801561045757600080fd5b50610460610e24565b60405161046d9190612b49565b60405180910390f35b34801561048257600080fd5b5061049d6004803603810190610498919061247f565b610e30565b6040516104aa91906128e7565b60405180910390f35b3480156104bf57600080fd5b506104c8610ed7565b6040516104d591906128e7565b60405180910390f35b3480156104ea57600080fd5b506105056004803603810190610500919061221c565b610f65565b6040516105129190612b49565b60405180910390f35b34801561052757600080fd5b50610542600480360381019061053d919061226e565b611017565b60405161054f91906128cc565b60405180910390f35b34801561056457600080fd5b5061057f600480360381019061057a919061221c565b6110ab565b005b60007f80ac58cd000000000000000000000000000000000000000000000000000000007bffffffffffffffffffffffffffffffffffffffffffffffffffffffff1916827bffffffffffffffffffffffffffffffffffffffffffffffffffffffff1916148061064c57507f5b5e139f000000000000000000000000000000000000000000000000000000007bffffffffffffffffffffffffffffffffffffffffffffffffffffffff1916827bffffffffffffffffffffffffffffffffffffffffffffffffffffffff1916145b8061065c575061065b826111a3565b5b9050919050565b60606000805461067290612db1565b80601f016020809104026020016040519081016040528092919081815260200182805461069e90612db1565b80156106eb5780601f106106c0576101008083540402835291602001916106eb565b820191906000526020600020905b8154815290600101906020018083116106ce57829003601f168201915b5050505050905090565b60006107008261120d565b61073f576040517f08c379a000000000000000000000000000000000000000000000000000000000815260040161073690612a69565b60405180910390fd5b6004600083815260200190815260200160002060009054906101000a900473ffffffffffffffffffffffffffffffffffffffff169050919050565b600061078582610a30565b90508073ffffffffffffffffffffffffffffffffffffffff168373ffffffffffffffffffffffffffffffffffffffff1614156107f6576040517f08c379a00000000000000000000000000000000000000000000000000000000081526004016107ed90612ac9565b60405180910390fd5b8073ffffffffffffffffffffffffffffffffffffffff16610815611279565b73ffffffffffffffffffffffffffffffffffffffff16148061084457506108438161083e611279565b611017565b5b610883576040517f08c379a000000000000000000000000000000000000000000000000000000000815260040161087a906129e9565b60405180910390fd5b61088d8383611281565b505050565b6108a361089d611279565b8261133a565b6108e2576040517f08c379a00000000000000000000000000000000000000000000000000000000081526004016108d990612ae9565b60405180910390fd5b6108ed838383611418565b505050565b6108fa611279565b73ffffffffffffffffffffffffffffffffffffffff16610918610ceb565b73ffffffffffffffffffffffffffffffffffffffff161461096e576040517f08c379a000000000000000000000000000000000000000000000000000000000815260040161096590612a89565b60405180910390fd5b8060089080519060200190610984929190612016565b5050565b610990611279565b73ffffffffffffffffffffffffffffffffffffffff166109ae610ceb565b73ffffffffffffffffffffffffffffffffffffffff1614610a04576040517f08c379a00000000000000000000000000000000000000000000000000000000081526004016109fb90612a89565b60405180910390fd5b610a0d8161167f565b50565b610a2b83838360405180602001604052806000815250610dc2565b505050565b6000806002600084815260200190815260200160002060009054906101000a900473ffffffffffffffffffffffffffffffffffffffff169050600073ffffffffffffffffffffffffffffffffffffffff168173ffffffffffffffffffffffffffffffffffffffff161415610ad9576040517f08c379a0000000000000000000000000000000000000000000000000000000008152600401610ad090612a29565b60405180910390fd5b80915050919050565b60008073ffffffffffffffffffffffffffffffffffffffff168273ffffffffffffffffffffffffffffffffffffffff161415610b53576040517f08c379a0000000000000000000000000000000000000000000000000000000008152600401610b4a90612a09565b60405180910390fd5b600360008373ffffffffffffffffffffffffffffffffffffffff1673ffffffffffffffffffffffffffffffffffffffff168152602001908152602001600020549050919050565b610ba2611279565b73ffffffffffffffffffffffffffffffffffffffff16610bc0610ceb565b73ffffffffffffffffffffffffffffffffffffffff1614610c16576040517f08c379a0000000000000000000000000000000000000000000000000000000008152600401610c0d90612a89565b60405180910390fd5b610c20600061170d565b565b600080610c2f60076117d3565b905060648110610c74576040517f08c379a0000000000000000000000000000000000000000000000000000000008152600401610c6b90612b09565b60405180910390fd5b67011c37937e080000341015610cbf576040517f08c379a0000000000000000000000000000000000000000000000000000000008152600401610cb690612b29565b60405180910390fd5b610cc960076117e1565b6000610cd560076117d3565b9050610ce184826117f7565b8092505050919050565b6000600660009054906101000a900473ffffffffffffffffffffffffffffffffffffffff16905090565b606481565b606060018054610d2990612db1565b80601f0160208091040260200160405190810160405280929190818152602001828054610d5590612db1565b8015610da25780601f10610d7757610100808354040283529160200191610da2565b820191906000526020600020905b815481529060010190602001808311610d8557829003601f168201915b5050505050905090565b610dbe610db7611279565b8383611815565b5050565b610dd3610dcd611279565b8361133a565b610e12576040517f08c379a0000000000000000000000000000000000000000000000000000000008152600401610e0990612ae9565b60405180910390fd5b610e1e84848484611982565b50505050565b67011c37937e08000081565b6060610e3b8261120d565b610e7a576040517f08c379a0000000000000000000000000000000000000000000000000000000008152600401610e7190612aa9565b60405180910390fd5b6000610e846119de565b90506000815111610ea45760405180602001604052806000815250610ecf565b80610eae84611a70565b604051602001610ebf929190612826565b6040516020818303038152906040525b915050919050565b60088054610ee490612db1565b80601f0160208091040260200160405190810160405280929190818152602001828054610f1090612db1565b8015610f5d5780601f10610f3257610100808354040283529160200191610f5d565b820191906000526020600020905b815481529060010190602001808311610f4057829003601f168201915b505050505081565b60007f000000000000000000000000000000000000000000000000000000000000000073ffffffffffffffffffffffffffffffffffffffff1663e3a9db1a836040518263ffffffff1660e01b8152600401610fc0919061284a565b60206040518083038186803b158015610fd857600080fd5b505afa158015610fec573d6000803e3d6000fd5b505050506040513d601f19601f8201168201806040525081019061101091906124a8565b9050919050565b6000600560008473ffffffffffffffffffffffffffffffffffffffff1673ffffffffffffffffffffffffffffffffffffffff16815260200190815260200160002060008373ffffffffffffffffffffffffffffffffffffffff1673ffffffffffffffffffffffffffffffffffffffff16815260200190815260200160002060009054906101000a900460ff16905092915050565b6110b3611279565b73ffffffffffffffffffffffffffffffffffffffff166110d1610ceb565b73ffffffffffffffffffffffffffffffffffffffff1614611127576040517f08c379a000000000000000000000000000000000000000000000000000000000815260040161111e90612a89565b60405180910390fd5b600073ffffffffffffffffffffffffffffffffffffffff168173ffffffffffffffffffffffffffffffffffffffff161415611197576040517f08c379a000000000000000000000000000000000000000000000000000000000815260040161118e90612929565b60405180910390fd5b6111a08161170d565b50565b60007f01ffc9a7000000000000000000000000000000000000000000000000000000007bffffffffffffffffffffffffffffffffffffffffffffffffffffffff1916827bffffffffffffffffffffffffffffffffffffffffffffffffffffffff1916149050919050565b60008073ffffffffffffffffffffffffffffffffffffffff166002600084815260200190815260200160002060009054906101000a900473ffffffffffffffffffffffffffffffffffffffff1673ffffffffffffffffffffffffffffffffffffffff1614159050919050565b600033905090565b816004600083815260200190815260200160002060006101000a81548173ffffffffffffffffffffffffffffffffffffffff021916908373ffffffffffffffffffffffffffffffffffffffff160217905550808273ffffffffffffffffffffffffffffffffffffffff166112f483610a30565b73ffffffffffffffffffffffffffffffffffffffff167f8c5be1e5ebec7d5bd14f71427d1e84f3dd0314c0f7b2291e5b200ac8c7c3b92560405160405180910390a45050565b60006113458261120d565b611384576040517f08c379a000000000000000000000000000000000000000000000000000000000815260040161137b906129c9565b60405180910390fd5b600061138f83610a30565b90508073ffffffffffffffffffffffffffffffffffffffff168473ffffffffffffffffffffffffffffffffffffffff1614806113fe57508373ffffffffffffffffffffffffffffffffffffffff166113e6846106f5565b73ffffffffffffffffffffffffffffffffffffffff16145b8061140f575061140e8185611017565b5b91505092915050565b8273ffffffffffffffffffffffffffffffffffffffff1661143882610a30565b73ffffffffffffffffffffffffffffffffffffffff161461148e576040517f08c379a000000000000000000000000000000000000000000000000000000000815260040161148590612949565b60405180910390fd5b600073ffffffffffffffffffffffffffffffffffffffff168273ffffffffffffffffffffffffffffffffffffffff1614156114fe576040517f08c379a00000000000000000000000000000000000000000000000000000000081526004016114f590612989565b60405180910390fd5b611509838383611c1d565b611514600082611281565b6001600360008573ffffffffffffffffffffffffffffffffffffffff1673ffffffffffffffffffffffffffffffffffffffff16815260200190815260200160002060008282546115649190612cb5565b925050819055506001600360008473ffffffffffffffffffffffffffffffffffffffff1673ffffffffffffffffffffffffffffffffffffffff16815260200190815260200160002060008282546115bb9190612c2e565b92505081905550816002600083815260200190815260200160002060006101000a81548173ffffffffffffffffffffffffffffffffffffffff021916908373ffffffffffffffffffffffffffffffffffffffff160217905550808273ffffffffffffffffffffffffffffffffffffffff168473ffffffffffffffffffffffffffffffffffffffff167fddf252ad1be2c89b69c2b068fc378daa952ba7f163c4a11628f55a4df523b3ef60405160405180910390a461167a838383611c22565b505050565b7f000000000000000000000000000000000000000000000000000000000000000073ffffffffffffffffffffffffffffffffffffffff166351cff8d9826040518263ffffffff1660e01b81526004016116d89190612865565b600060405180830381600087803b1580156116f257600080fd5b505af1158015611706573d6000803e3d6000fd5b5050505050565b6000600660009054906101000a900473ffffffffffffffffffffffffffffffffffffffff16905081600660006101000a81548173ffffffffffffffffffffffffffffffffffffffff021916908373ffffffffffffffffffffffffffffffffffffffff1602179055508173ffffffffffffffffffffffffffffffffffffffff168173ffffffffffffffffffffffffffffffffffffffff167f8be0079c531659141344cd1fd0a4f28419497f9722a3daafe3b4186f6b6457e060405160405180910390a35050565b600081600001549050919050565b6001816000016000828254019250508190555050565b611811828260405180602001604052806000815250611c27565b5050565b8173ffffffffffffffffffffffffffffffffffffffff168373ffffffffffffffffffffffffffffffffffffffff161415611884576040517f08c379a000000000000000000000000000000000000000000000000000000000815260040161187b906129a9565b60405180910390fd5b80600560008573ffffffffffffffffffffffffffffffffffffffff1673ffffffffffffffffffffffffffffffffffffffff16815260200190815260200160002060008473ffffffffffffffffffffffffffffffffffffffff1673ffffffffffffffffffffffffffffffffffffffff16815260200190815260200160002060006101000a81548160ff0219169083151502179055508173ffffffffffffffffffffffffffffffffffffffff168373ffffffffffffffffffffffffffffffffffffffff167f17307eab39ab6107e8899845ad3d59bd9653f200f220920489ca2b5937696c318360405161197591906128cc565b60405180910390a3505050565b61198d848484611418565b61199984848484611c82565b6119d8576040517f08c379a00000000000000000000000000000000000000000000000000000000081526004016119cf90612909565b60405180910390fd5b50505050565b6060600880546119ed90612db1565b80601f0160208091040260200160405190810160405280929190818152602001828054611a1990612db1565b8015611a665780601f10611a3b57610100808354040283529160200191611a66565b820191906000526020600020905b815481529060010190602001808311611a4957829003601f168201915b5050505050905090565b60606000821415611ab8576040518060400160405280600181526020017f30000000000000000000000000000000000000000000000000000000000000008152509050611c18565b600082905060005b60008214611aea578080611ad390612e14565b915050600a82611ae39190612c84565b9150611ac0565b60008167ffffffffffffffff811115611b2c577f4e487b7100000000000000000000000000000000000000000000000000000000600052604160045260246000fd5b6040519080825280601f01601f191660200182016040528015611b5e5781602001600182028036833780820191505090505b5090505b60008514611c1157600182611b779190612cb5565b9150600a85611b869190612e5d565b6030611b929190612c2e565b60f81b818381518110611bce577f4e487b7100000000000000000000000000000000000000000000000000000000600052603260045260246000fd5b60200101907effffffffffffffffffffffffffffffffffffffffffffffffffffffffffffff1916908160001a905350600a85611c0a9190612c84565b9450611b62565b8093505050505b919050565b505050565b505050565b611c318383611e19565b611c3e6000848484611c82565b611c7d576040517f08c379a0000000000000000000000000000000000000000000000000000000008152600401611c7490612909565b60405180910390fd5b505050565b6000611ca38473ffffffffffffffffffffffffffffffffffffffff16611ff3565b15611e0c578373ffffffffffffffffffffffffffffffffffffffff1663150b7a02611ccc611279565b8786866040518563ffffffff1660e01b8152600401611cee9493929190612880565b602060405180830381600087803b158015611d0857600080fd5b505af1925050508015611d3957506040513d601f19601f82011682018060405250810190611d369190612415565b60015b611dbc573d8060008114611d69576040519150601f19603f3d011682016040523d82523d6000602084013e611d6e565b606091505b50600081511415611db4576040517f08c379a0000000000000000000000000000000000000000000000000000000008152600401611dab90612909565b60405180910390fd5b805181602001fd5b63150b7a0260e01b7bffffffffffffffffffffffffffffffffffffffffffffffffffffffff1916817bffffffffffffffffffffffffffffffffffffffffffffffffffffffff191614915050611e11565b600190505b949350505050565b600073ffffffffffffffffffffffffffffffffffffffff168273ffffffffffffffffffffffffffffffffffffffff161415611e89576040517f08c379a0000000000000000000000000000000000000000000000000000000008152600401611e8090612a49565b60405180910390fd5b611e928161120d565b15611ed2576040517f08c379a0000000000000000000000000000000000000000000000000000000008152600401611ec990612969565b60405180910390fd5b611ede60008383611c1d565b6001600360008473ffffffffffffffffffffffffffffffffffffffff1673ffffffffffffffffffffffffffffffffffffffff1681526020019081526020016000206000828254611f2e9190612c2e565b92505081905550816002600083815260200190815260200160002060006101000a81548173ffffffffffffffffffffffffffffffffffffffff021916908373ffffffffffffffffffffffffffffffffffffffff160217905550808273ffffffffffffffffffffffffffffffffffffffff16600073ffffffffffffffffffffffffffffffffffffffff167fddf252ad1be2c89b69c2b068fc378daa952ba7f163c4a11628f55a4df523b3ef60405160405180910390a4611fef60008383611c22565b5050565b6000808273ffffffffffffffffffffffffffffffffffffffff163b119050919050565b82805461202290612db1565b90600052602060002090601f016020900481019282612044576000855561208b565b82601f1061205d57805160ff191683800117855561208b565b8280016001018555821561208b579182015b8281111561208a57825182559160200191906001019061206f565b5b509050612098919061209c565b5090565b5b808211156120b557600081600090555060010161209d565b5090565b60006120cc6120c784612b89565b612b64565b9050828152602081018484840111156120e457600080fd5b6120ef848285612d6f565b509392505050565b600061210a61210584612bba565b612b64565b90508281526020810184848401111561212257600080fd5b61212d848285612d6f565b509392505050565b6000813590506121448161342b565b92915050565b60008135905061215981613442565b92915050565b60008135905061216e81613459565b92915050565b60008135905061218381613470565b92915050565b60008151905061219881613470565b92915050565b600082601f8301126121af57600080fd5b81356121bf8482602086016120b9565b91505092915050565b600082601f8301126121d957600080fd5b81356121e98482602086016120f7565b91505092915050565b60008135905061220181613487565b92915050565b60008151905061221681613487565b92915050565b60006020828403121561222e57600080fd5b600061223c84828501612135565b91505092915050565b60006020828403121561225757600080fd5b60006122658482850161214a565b91505092915050565b6000806040838503121561228157600080fd5b600061228f85828601612135565b92505060206122a085828601612135565b9150509250929050565b6000806000606084860312156122bf57600080fd5b60006122cd86828701612135565b93505060206122de86828701612135565b92505060406122ef868287016121f2565b9150509250925092565b6000806000806080858703121561230f57600080fd5b600061231d87828801612135565b945050602061232e87828801612135565b935050604061233f878288016121f2565b925050606085013567ffffffffffffffff81111561235c57600080fd5b6123688782880161219e565b91505092959194509250565b6000806040838503121561238757600080fd5b600061239585828601612135565b92505060206123a68582860161215f565b9150509250929050565b600080604083850312156123c357600080fd5b60006123d185828601612135565b92505060206123e2858286016121f2565b9150509250929050565b6000602082840312156123fe57600080fd5b600061240c84828501612174565b91505092915050565b60006020828403121561242757600080fd5b600061243584828501612189565b91505092915050565b60006020828403121561245057600080fd5b600082013567ffffffffffffffff81111561246a57600080fd5b612476848285016121c8565b91505092915050565b60006020828403121561249157600080fd5b600061249f848285016121f2565b91505092915050565b6000602082840312156124ba57600080fd5b60006124c884828501612207565b91505092915050565b6124da81612cfb565b82525050565b6124e981612ce9565b82525050565b6124f881612d0d565b82525050565b600061250982612beb565b6125138185612c01565b9350612523818560208601612d7e565b61252c81612f4a565b840191505092915050565b600061254282612bf6565b61254c8185612c12565b935061255c818560208601612d7e565b61256581612f4a565b840191505092915050565b600061257b82612bf6565b6125858185612c23565b9350612595818560208601612d7e565b80840191505092915050565b60006125ae603283612c12565b91506125b982612f5b565b604082019050919050565b60006125d1602683612c12565b91506125dc82612faa565b604082019050919050565b60006125f4602583612c12565b91506125ff82612ff9565b604082019050919050565b6000612617601c83612c12565b915061262282613048565b602082019050919050565b600061263a602483612c12565b915061264582613071565b604082019050919050565b600061265d601983612c12565b9150612668826130c0565b602082019050919050565b6000612680602c83612c12565b915061268b826130e9565b604082019050919050565b60006126a3603883612c12565b91506126ae82613138565b604082019050919050565b60006126c6602a83612c12565b91506126d182613187565b604082019050919050565b60006126e9602983612c12565b91506126f4826131d6565b604082019050919050565b600061270c602083612c12565b915061271782613225565b602082019050919050565b600061272f602c83612c12565b915061273a8261324e565b604082019050919050565b6000612752602083612c12565b915061275d8261329d565b602082019050919050565b6000612775602f83612c12565b9150612780826132c6565b604082019050919050565b6000612798602183612c12565b91506127a382613315565b604082019050919050565b60006127bb603183612c12565b91506127c682613364565b604082019050919050565b60006127de601283612c12565b91506127e9826133b3565b602082019050919050565b6000612801603f83612c12565b915061280c826133dc565b604082019050919050565b61282081612d65565b82525050565b60006128328285612570565b915061283e8284612570565b91508190509392505050565b600060208201905061285f60008301846124e0565b92915050565b600060208201905061287a60008301846124d1565b92915050565b600060808201905061289560008301876124e0565b6128a260208301866124e0565b6128af6040830185612817565b81810360608301526128c181846124fe565b905095945050505050565b60006020820190506128e160008301846124ef565b92915050565b600060208201905081810360008301526129018184612537565b905092915050565b60006020820190508181036000830152612922816125a1565b9050919050565b60006020820190508181036000830152612942816125c4565b9050919050565b60006020820190508181036000830152612962816125e7565b9050919050565b600060208201905081810360008301526129828161260a565b9050919050565b600060208201905081810360008301526129a28161262d565b9050919050565b600060208201905081810360008301526129c281612650565b9050919050565b600060208201905081810360008301526129e281612673565b9050919050565b60006020820190508181036000830152612a0281612696565b9050919050565b60006020820190508181036000830152612a22816126b9565b9050919050565b60006020820190508181036000830152612a42816126dc565b9050919050565b60006020820190508181036000830152612a62816126ff565b9050919050565b60006020820190508181036000830152612a8281612722565b9050919050565b60006020820190508181036000830152612aa281612745565b9050919050565b60006020820190508181036000830152612ac281612768565b9050919050565b60006020820190508181036000830152612ae28161278b565b9050919050565b60006020820190508181036000830152612b02816127ae565b9050919050565b60006020820190508181036000830152612b22816127d1565b9050919050565b60006020820190508181036000830152612b42816127f4565b9050919050565b6000602082019050612b5e6000830184612817565b92915050565b6000612b6e612b7f565b9050612b7a8282612de3565b919050565b6000604051905090565b600067ffffffffffffffff821115612ba457612ba3612f1b565b5b612bad82612f4a565b9050602081019050919050565b600067ffffffffffffffff821115612bd557612bd4612f1b565b5b612bde82612f4a565b9050602081019050919050565b600081519050919050565b600081519050919050565b600082825260208201905092915050565b600082825260208201905092915050565b600081905092915050565b6000612c3982612d65565b9150612c4483612d65565b9250827fffffffffffffffffffffffffffffffffffffffffffffffffffffffffffffffff03821115612c7957612c78612e8e565b5b828201905092915050565b6000612c8f82612d65565b9150612c9a83612d65565b925082612caa57612ca9612ebd565b5b828204905092915050565b6000612cc082612d65565b9150612ccb83612d65565b925082821015612cde57612cdd612e8e565b5b828203905092915050565b6000612cf482612d45565b9050919050565b6000612d0682612d45565b9050919050565b60008115159050919050565b60007fffffffff0000000000000000000000000000000000000000000000000000000082169050919050565b600073ffffffffffffffffffffffffffffffffffffffff82169050919050565b6000819050919050565b82818337600083830152505050565b60005b83811015612d9c578082015181840152602081019050612d81565b83811115612dab576000848401525b50505050565b60006002820490506001821680612dc957607f821691505b60208210811415612ddd57612ddc612eec565b5b50919050565b612dec82612f4a565b810181811067ffffffffffffffff82111715612e0b57612e0a612f1b565b5b80604052505050565b6000612e1f82612d65565b91507fffffffffffffffffffffffffffffffffffffffffffffffffffffffffffffffff821415612e5257612e51612e8e565b5b600182019050919050565b6000612e6882612d65565b9150612e7383612d65565b925082612e8357612e82612ebd565b5b828206905092915050565b7f4e487b7100000000000000000000000000000000000000000000000000000000600052601160045260246000fd5b7f4e487b7100000000000000000000000000000000000000000000000000000000600052601260045260246000fd5b7f4e487b7100000000000000000000000000000000000000000000000000000000600052602260045260246000fd5b7f4e487b7100000000000000000000000000000000000000000000000000000000600052604160045260246000fd5b6000601f19601f8301169050919050565b7f4552433732313a207472616e7366657220746f206e6f6e20455243373231526560008201527f63656976657220696d706c656d656e7465720000000000000000000000000000602082015250565b7f4f776e61626c653a206e6577206f776e657220697320746865207a65726f206160008201527f6464726573730000000000000000000000000000000000000000000000000000602082015250565b7f4552433732313a207472616e736665722066726f6d20696e636f72726563742060008201527f6f776e6572000000000000000000000000000000000000000000000000000000602082015250565b7f4552433732313a20746f6b656e20616c7265616479206d696e74656400000000600082015250565b7f4552433732313a207472616e7366657220746f20746865207a65726f2061646460008201527f7265737300000000000000000000000000000000000000000000000000000000602082015250565b7f4552433732313a20617070726f766520746f2063616c6c657200000000000000600082015250565b7f4552433732313a206f70657261746f7220717565727920666f72206e6f6e657860008201527f697374656e7420746f6b656e0000000000000000000000000000000000000000602082015250565b7f4552433732313a20617070726f76652063616c6c6572206973206e6f74206f7760008201527f6e6572206e6f7220617070726f76656420666f7220616c6c0000000000000000602082015250565b7f4552433732313a2062616c616e636520717565727920666f7220746865207a6560008201527f726f206164647265737300000000000000000000000000000000000000000000602082015250565b7f4552433732313a206f776e657220717565727920666f72206e6f6e657869737460008201527f656e7420746f6b656e0000000000000000000000000000000000000000000000602082015250565b7f4552433732313a206d696e7420746f20746865207a65726f2061646472657373600082015250565b7f4552433732313a20617070726f76656420717565727920666f72206e6f6e657860008201527f697374656e7420746f6b656e0000000000000000000000000000000000000000602082015250565b7f4f776e61626c653a2063616c6c6572206973206e6f7420746865206f776e6572600082015250565b7f4552433732314d657461646174613a2055524920717565727920666f72206e6f60008201527f6e6578697374656e7420746f6b656e0000000000000000000000000000000000602082015250565b7f4552433732313a20617070726f76616c20746f2063757272656e74206f776e6560008201527f7200000000000000000000000000000000000000000000000000000000000000602082015250565b7f4552433732313a207472616e736665722063616c6c6572206973206e6f74206f60008201527f776e6572206e6f7220617070726f766564000000000000000000000000000000602082015250565b7f4d617820737570706c7920726561636865640000000000000000000000000000600082015250565b7f5472616e73616374696f6e2076616c7565206c657373207468616e207468652060008201527f6d696e742070726963652c20776869636820697320302e303820657468657200602082015250565b61343481612ce9565b811461343f57600080fd5b50565b61344b81612cfb565b811461345657600080fd5b50565b61346281612d0d565b811461346d57600080fd5b50565b61347981612d19565b811461348457600080fd5b50565b61349081612d65565b811461349b57600080fd5b5056fea26469706673582212203aff3f9c402ce3209d5e7410ec3a3489248ceba1af31705f1b3c7a8a0ac6020d64736f6c63430008030033608060405234801561001057600080fd5b5061002d61002261003260201b60201c565b61003a60201b60201c565b6100fe565b600033905090565b60008060009054906101000a900473ffffffffffffffffffffffffffffffffffffffff169050816000806101000a81548173ffffffffffffffffffffffffffffffffffffffff021916908373ffffffffffffffffffffffffffffffffffffffff1602179055508173ffffffffffffffffffffffffffffffffffffffff168173ffffffffffffffffffffffffffffffffffffffff167f8be0079c531659141344cd1fd0a4f28419497f9722a3daafe3b4186f6b6457e060405160405180910390a35050565b610bfc8061010d6000396000f3fe6080604052600436106100555760003560e01c806351cff8d91461005a578063715018a6146100835780638da5cb5b1461009a578063e3a9db1a146100c5578063f2fde38b14610102578063f340fa011461012b575b600080fd5b34801561006657600080fd5b50610081600480360381019061007c91906107f5565b610147565b005b34801561008f57600080fd5b506100986102c7565b005b3480156100a657600080fd5b506100af61034f565b6040516100bc9190610900565b60405180910390f35b3480156100d157600080fd5b506100ec60048036038101906100e791906107cc565b610378565b6040516100f9919061099b565b60405180910390f35b34801561010e57600080fd5b50610129600480360381019061012491906107cc565b6103c1565b005b610145600480360381019061014091906107cc565b6104b9565b005b61014f6105e2565b73ffffffffffffffffffffffffffffffffffffffff1661016d61034f565b73ffffffffffffffffffffffffffffffffffffffff16146101c3576040517f08c379a00000000000000000000000000000000000000000000000000000000081526004016101ba9061097b565b60405180910390fd5b6000600160008373ffffffffffffffffffffffffffffffffffffffff1673ffffffffffffffffffffffffffffffffffffffff1681526020019081526020016000205490506000600160008473ffffffffffffffffffffffffffffffffffffffff1673ffffffffffffffffffffffffffffffffffffffff16815260200190815260200160002081905550610275818373ffffffffffffffffffffffffffffffffffffffff166105ea90919063ffffffff16565b8173ffffffffffffffffffffffffffffffffffffffff167f7084f5476618d8e60b11ef0d7d3f06914655adb8793e28ff7f018d4c76d505d5826040516102bb919061099b565b60405180910390a25050565b6102cf6105e2565b73ffffffffffffffffffffffffffffffffffffffff166102ed61034f565b73ffffffffffffffffffffffffffffffffffffffff1614610343576040517f08c379a000000000000000000000000000000000000000000000000000000000815260040161033a9061097b565b60405180910390fd5b61034d60006106de565b565b60008060009054906101000a900473ffffffffffffffffffffffffffffffffffffffff16905090565b6000600160008373ffffffffffffffffffffffffffffffffffffffff1673ffffffffffffffffffffffffffffffffffffffff168152602001908152602001600020549050919050565b6103c96105e2565b73ffffffffffffffffffffffffffffffffffffffff166103e761034f565b73ffffffffffffffffffffffffffffffffffffffff161461043d576040517f08c379a00000000000000000000000000000000000000000000000000000000081526004016104349061097b565b60405180910390fd5b600073ffffffffffffffffffffffffffffffffffffffff168173ffffffffffffffffffffffffffffffffffffffff1614156104ad576040517f08c379a00000000000000000000000000000000000000000000000000000000081526004016104a49061091b565b60405180910390fd5b6104b6816106de565b50565b6104c16105e2565b73ffffffffffffffffffffffffffffffffffffffff166104df61034f565b73ffffffffffffffffffffffffffffffffffffffff1614610535576040517f08c379a000000000000000000000000000000000000000000000000000000000815260040161052c9061097b565b60405180910390fd5b600034905080600160008473ffffffffffffffffffffffffffffffffffffffff1673ffffffffffffffffffffffffffffffffffffffff168152602001908152602001600020600082825461058991906109d2565b925050819055508173ffffffffffffffffffffffffffffffffffffffff167f2da466a7b24304f47e87fa2e1e5a81b9831ce54fec19055ce277ca2f39ba42c4826040516105d6919061099b565b60405180910390a25050565b600033905090565b8047101561062d576040517f08c379a00000000000000000000000000000000000000000000000000000000081526004016106249061095b565b60405180910390fd5b60008273ffffffffffffffffffffffffffffffffffffffff1682604051610653906108eb565b60006040518083038185875af1925050503d8060008114610690576040519150601f19603f3d011682016040523d82523d6000602084013e610695565b606091505b50509050806106d9576040517f08c379a00000000000000000000000000000000000000000000000000000000081526004016106d09061093b565b60405180910390fd5b505050565b60008060009054906101000a900473ffffffffffffffffffffffffffffffffffffffff169050816000806101000a81548173ffffffffffffffffffffffffffffffffffffffff021916908373ffffffffffffffffffffffffffffffffffffffff1602179055508173ffffffffffffffffffffffffffffffffffffffff168173ffffffffffffffffffffffffffffffffffffffff167f8be0079c531659141344cd1fd0a4f28419497f9722a3daafe3b4186f6b6457e060405160405180910390a35050565b6000813590506107b181610b98565b92915050565b6000813590506107c681610baf565b92915050565b6000602082840312156107de57600080fd5b60006107ec848285016107a2565b91505092915050565b60006020828403121561080757600080fd5b6000610815848285016107b7565b91505092915050565b61082781610a28565b82525050565b600061083a6026836109c1565b915061084582610aa5565b604082019050919050565b600061085d603a836109c1565b915061086882610af4565b604082019050919050565b6000610880601d836109c1565b915061088b82610b43565b602082019050919050565b60006108a36020836109c1565b91506108ae82610b6c565b602082019050919050565b60006108c66000836109b6565b91506108d182610b95565b600082019050919050565b6108e581610a6c565b82525050565b60006108f6826108b9565b9150819050919050565b6000602082019050610915600083018461081e565b92915050565b600060208201905081810360008301526109348161082d565b9050919050565b6000602082019050818103600083015261095481610850565b9050919050565b6000602082019050818103600083015261097481610873565b9050919050565b6000602082019050818103600083015261099481610896565b9050919050565b60006020820190506109b060008301846108dc565b92915050565b600081905092915050565b600082825260208201905092915050565b60006109dd82610a6c565b91506109e883610a6c565b9250827fffffffffffffffffffffffffffffffffffffffffffffffffffffffffffffffff03821115610a1d57610a1c610a76565b5b828201905092915050565b6000610a3382610a4c565b9050919050565b6000610a4582610a4c565b9050919050565b600073ffffffffffffffffffffffffffffffffffffffff82169050919050565b6000819050919050565b7f4e487b7100000000000000000000000000000000000000000000000000000000600052601160045260246000fd5b7f4f776e61626c653a206e6577206f776e657220697320746865207a65726f206160008201527f6464726573730000000000000000000000000000000000000000000000000000602082015250565b7f416464726573733a20756e61626c6520746f2073656e642076616c75652c207260008201527f6563697069656e74206d61792068617665207265766572746564000000000000602082015250565b7f416464726573733a20696e73756666696369656e742062616c616e6365000000600082015250565b7f4f776e61626c653a2063616c6c6572206973206e6f7420746865206f776e6572600082015250565b50565b610ba181610a28565b8114610bac57600080fd5b50565b610bb881610a3a565b8114610bc357600080fd5b5056fea2646970667358221220af35cf72701ae3317dfe69a784ef0e6a4e8d38cdb608db9f47be4a23b627c12a64736f6c63430008030033",
  "linkReferences": {},
  "deployedLinkReferences": {}
}