{
  "_format": "hh-sol-artifact-1",
  "contractName": "NFTUpgradeable",
  "sourceName": "contracts/NFTUpgradeable.sol",
  "abi": [
    {
      "anonymous": false,
      "inputs": [
        {
          "indexed": true,
          "internalType": "address",
          "name": "owner",
          "type": "address"
        },
        {
          "indexed": true,
          "internalType": "address",
          "name": "approved",
          "type": "address"
        },
        {
          "indexed": true,
          "internalType": "uint256",
          "name": "tokenId",
          "type": "uint256"
        }
      ],
      "name": "Approval",
      "type": "event"
    },
    {
      "anonymous": false,
      "inputs": [
        {
          "indexed": true,
          "internalType": "address",
          "name": "owner",
          "type": "address"
        },
        {
          "indexed": true,
          "internalType": "address",
          "name": "operator",
          "type": "address"
        },
        {
          "indexed": false,
          "internalType": "bool",
          "name": "approved",
          "type": "bool"
        }
      ],
      "name": "ApprovalForAll",
      "type": "event"
    },
    {
      "anonymous": false,
      "inputs": [
        {
          "indexed": true,
          "internalType": "address",
          "name": "previousOwner",
          "type": "address"
        },
        {
          "indexed": true,
          "internalType": "address",
          "name": "newOwner",
          "type": "address"
        }
      ],
      "name": "OwnershipTransferred",
      "type": "event"
    },
    {
      "anonymous": false,
      "inputs": [
        {
          "indexed": true,
          "internalType": "address",
          "name": "from",
          "type": "address"
        },
        {
          "indexed": true,
          "internalType": "address",
          "name": "to",
          "type": "address"
        },
        {
          "indexed": true,
          "internalType": "uint256",
          "name": "tokenId",
          "type": "uint256"
        }
      ],
      "name": "Transfer",
      "type": "event"
    },
    {
      "inputs": [],
      "name": "MINT_PRICE",
      "outputs": [
        {
          "internalType": "uint256",
          "name": "",
          "type": "uint256"
        }
      ],
      "stateMutability": "view",
      "type": "function"
    },
    {
      "inputs": [],
      "name": "TOTAL_SUPPLY",
      "outputs": [
        {
          "internalType": "uint256",
          "name": "",
          "type": "uint256"
        }
      ],
      "stateMutability": "view",
      "type": "function"
    },
    {
      "inputs": [
        {
          "internalType": "address",
          "name": "to",
          "type": "address"
        },
        {
          "internalType": "uint256",
          "name": "tokenId",
          "type": "uint256"
        }
      ],
      "name": "approve",
      "outputs": [],
      "stateMutability": "nonpayable",
      "type": "function"
    },
    {
      "inputs": [
        {
          "internalType": "address",
          "name": "owner",
          "type": "address"
        }
      ],
      "name": "balanceOf",
      "outputs": [
        {
          "internalType": "uint256",
          "name": "",
          "type": "uint256"
        }
      ],
      "stateMutability": "view",
      "type": "function"
    },
    {
      "inputs": [],
      "name": "baseTokenURI",
      "outputs": [
        {
          "internalType": "string",
          "name": "",
          "type": "string"
        }
      ],
      "stateMutability": "view",
      "type": "function"
    },
    {
      "inputs": [
        {
          "internalType": "uint256",
          "name": "tokenId",
          "type": "uint256"
        }
      ],
      "name": "getApproved",
      "outputs": [
        {
          "internalType": "address",
          "name": "",
          "type": "address"
        }
      ],
      "stateMutability": "view",
      "type": "function"
    },
    {
      "inputs": [],
      "name": "initialize",
      "outputs": [],
      "stateMutability": "nonpayable",
      "type": "function"
    },
    {
      "inputs": [
        {
          "internalType": "address",
          "name": "owner",
          "type": "address"
        },
        {
          "internalType": "address",
          "name": "operator",
          "type": "address"
        }
      ],
      "name": "isApprovedForAll",
      "outputs": [
        {
          "internalType": "bool",
          "name": "",
          "type": "bool"
        }
      ],
      "stateMutability": "view",
      "type": "function"
    },
    {
      "inputs": [
        {
          "internalType": "address",
          "name": "recipient",
          "type": "address"
        }
      ],
      "name": "mintTo",
      "outputs": [
        {
          "internalType": "uint256",
          "name": "",
          "type": "uint256"
        }
      ],
      "stateMutability": "payable",
      "type": "function"
    },
    {
      "inputs": [],
      "name": "name",
      "outputs": [
        {
          "internalType": "string",
          "name": "",
          "type": "string"
        }
      ],
      "stateMutability": "view",
      "type": "function"
    },
    {
      "inputs": [],
      "name": "owner",
      "outputs": [
        {
          "internalType": "address",
          "name": "",
          "type": "address"
        }
      ],
      "stateMutability": "view",
      "type": "function"
    },
    {
      "inputs": [
        {
          "internalType": "uint256",
          "name": "tokenId",
          "type": "uint256"
        }
      ],
      "name": "ownerOf",
      "outputs": [
        {
          "internalType": "address",
          "name": "",
          "type": "address"
        }
      ],
      "stateMutability": "view",
      "type": "function"
    },
    {
      "inputs": [
        {
          "internalType": "address",
          "name": "dest",
          "type": "address"
        }
      ],
      "name": "payments",
      "outputs": [
        {
          "internalType": "uint256",
          "name": "",
          "type": "uint256"
        }
      ],
      "stateMutability": "view",
      "type": "function"
    },
    {
      "inputs": [],
      "name": "renounceOwnership",
      "outputs": [],
      "stateMutability": "nonpayable",
      "type": "function"
    },
    {
      "inputs": [
        {
          "internalType": "address",
          "name": "from",
          "type": "address"
        },
        {
          "internalType": "address",
          "name": "to",
          "type": "address"
        },
        {
          "internalType": "uint256",
          "name": "tokenId",
          "type": "uint256"
        }
      ],
      "name": "safeTransferFrom",
      "outputs": [],
      "stateMutability": "nonpayable",
      "type": "function"
    },
    {
      "inputs": [
        {
          "internalType": "address",
          "name": "from",
          "type": "address"
        },
        {
          "internalType": "address",
          "name": "to",
          "type": "address"
        },
        {
          "internalType": "uint256",
          "name": "tokenId",
          "type": "uint256"
        },
        {
          "internalType": "bytes",
          "name": "_data",
          "type": "bytes"
        }
      ],
      "name": "safeTransferFrom",
      "outputs": [],
      "stateMutability": "nonpayable",
      "type": "function"
    },
    {
      "inputs": [
        {
          "internalType": "address",
          "name": "operator",
          "type": "address"
        },
        {
          "internalType": "bool",
          "name": "approved",
          "type": "bool"
        }
      ],
      "name": "setApprovalForAll",
      "outputs": [],
      "stateMutability": "nonpayable",
      "type": "function"
    },
    {
      "inputs": [
        {
          "internalType": "string",
          "name": "_baseTokenURI",
          "type": "string"
        }
      ],
      "name": "setBaseTokenURI",
      "outputs": [],
      "stateMutability": "nonpayable",
      "type": "function"
    },
    {
      "inputs": [
        {
          "internalType": "bytes4",
          "name": "interfaceId",
          "type": "bytes4"
        }
      ],
      "name": "supportsInterface",
      "outputs": [
        {
          "internalType": "bool",
          "name": "",
          "type": "bool"
        }
      ],
      "stateMutability": "view",
      "type": "function"
    },
    {
      "inputs": [],
      "name": "symbol",
      "outputs": [
        {
          "internalType": "string",
          "name": "",
          "type": "string"
        }
      ],
      "stateMutability": "view",
      "type": "function"
    },
    {
      "inputs": [
        {
          "internalType": "uint256",
          "name": "tokenId",
          "type": "uint256"
        }
      ],
      "name": "tokenURI",
      "outputs": [
        {
          "internalType": "string",
          "name": "",
          "type": "string"
        }
      ],
      "stateMutability": "view",
      "type": "function"
    },
    {
      "inputs": [
        {
          "internalType": "address",
          "name": "from",
          "type": "address"
        },
        {
          "internalType": "address",
          "name": "to",
          "type": "address"
        },
        {
          "internalType": "uint256",
          "name": "tokenId",
          "type": "uint256"
        }
      ],
      "name": "transferFrom",
      "outputs": [],
      "stateMutability": "nonpayable",
      "type": "function"
    },
    {
      "inputs": [
        {
          "internalType": "address",
          "name": "newOwner",
          "type": "address"
        }
      ],
      "name": "transferOwnership",
      "outputs": [],
      "stateMutability": "nonpayable",
      "type": "function"
    },
    {
      "inputs": [
        {
          "internalType": "address payable",
          "name": "payee",
          "type": "address"
        }
      ],
      "name": "withdrawPayments",
      "outputs": [],
      "stateMutability": "nonpayable",
      "type": "function"
    }
  ],
  "bytecode": "0x608060405234801561001057600080fd5b50614a46806100206000396000f3fe60806040526004361061014b5760003560e01c80638129fc1c116100b6578063c002d23d1161006f578063c002d23d1461046d578063c87b56dd14610498578063d547cfb7146104d5578063e2982c2114610500578063e985e9c51461053d578063f2fde38b1461057a5761014b565b80638129fc1c146103835780638da5cb5b1461039a578063902d55a5146103c557806395d89b41146103f0578063a22cb4651461041b578063b88d4fde146104445761014b565b806331b3eb941161010857806331b3eb941461027057806342842e0e146102995780636352211e146102c257806370a08231146102ff578063715018a61461033c578063755edd17146103535761014b565b806301ffc9a71461015057806306fdde031461018d578063081812fc146101b8578063095ea7b3146101f557806323b872dd1461021e57806330176e1314610247575b600080fd5b34801561015c57600080fd5b50610177600480360381019061017291906128eb565b6105a3565b6040516101849190612e11565b60405180910390f35b34801561019957600080fd5b506101a2610685565b6040516101af9190612e2c565b60405180910390f35b3480156101c457600080fd5b506101df60048036038101906101da919061297e565b610717565b6040516101ec9190612d8f565b60405180910390f35b34801561020157600080fd5b5061021c600480360381019061021791906128af565b61079c565b005b34801561022a57600080fd5b50610245600480360381019061024091906127a9565b6108b4565b005b34801561025357600080fd5b5061026e6004803603810190610269919061293d565b610914565b005b34801561027c57600080fd5b5061029760048036038101906102929190612744565b6109aa565b005b3480156102a557600080fd5b506102c060048036038101906102bb91906127a9565b610a32565b005b3480156102ce57600080fd5b506102e960048036038101906102e4919061297e565b610a52565b6040516102f69190612d8f565b60405180910390f35b34801561030b57600080fd5b506103266004803603810190610321919061271b565b610b04565b60405161033391906130ce565b60405180910390f35b34801561034857600080fd5b50610351610bbc565b005b61036d6004803603810190610368919061271b565b610c44565b60405161037a91906130ce565b60405180910390f35b34801561038f57600080fd5b50610398610d0d565b005b3480156103a657600080fd5b506103af610e9b565b6040516103bc9190612d8f565b60405180910390f35b3480156103d157600080fd5b506103da610ec5565b6040516103e791906130ce565b60405180910390f35b3480156103fc57600080fd5b50610405610eca565b6040516104129190612e2c565b60405180910390f35b34801561042757600080fd5b50610442600480360381019061043d9190612873565b610f5c565b005b34801561045057600080fd5b5061046b600480360381019061046691906127f8565b610f72565b005b34801561047957600080fd5b50610482610fd4565b60405161048f91906130ce565b60405180910390f35b3480156104a457600080fd5b506104bf60048036038101906104ba919061297e565b610fe0565b6040516104cc9190612e2c565b60405180910390f35b3480156104e157600080fd5b506104ea611087565b6040516104f79190612e2c565b60405180910390f35b34801561050c57600080fd5b506105276004803603810190610522919061271b565b611115565b60405161053491906130ce565b60405180910390f35b34801561054957600080fd5b50610564600480360381019061055f919061276d565b6111c9565b6040516105719190612e11565b60405180910390f35b34801561058657600080fd5b506105a1600480360381019061059c919061271b565b61125d565b005b60007f80ac58cd000000000000000000000000000000000000000000000000000000007bffffffffffffffffffffffffffffffffffffffffffffffffffffffff1916827bffffffffffffffffffffffffffffffffffffffffffffffffffffffff1916148061066e57507f5b5e139f000000000000000000000000000000000000000000000000000000007bffffffffffffffffffffffffffffffffffffffffffffffffffffffff1916827bffffffffffffffffffffffffffffffffffffffffffffffffffffffff1916145b8061067e575061067d82611355565b5b9050919050565b60606065805461069490613336565b80601f01602080910402602001604051908101604052809291908181526020018280546106c090613336565b801561070d5780601f106106e25761010080835404028352916020019161070d565b820191906000526020600020905b8154815290600101906020018083116106f057829003601f168201915b5050505050905090565b6000610722826113bf565b610761576040517f08c379a000000000000000000000000000000000000000000000000000000000815260040161075890612fce565b60405180910390fd5b6069600083815260200190815260200160002060009054906101000a900473ffffffffffffffffffffffffffffffffffffffff169050919050565b60006107a782610a52565b90508073ffffffffffffffffffffffffffffffffffffffff168373ffffffffffffffffffffffffffffffffffffffff161415610818576040517f08c379a000000000000000000000000000000000000000000000000000000000815260040161080f9061302e565b60405180910390fd5b8073ffffffffffffffffffffffffffffffffffffffff1661083761142b565b73ffffffffffffffffffffffffffffffffffffffff16148061086657506108658161086061142b565b6111c9565b5b6108a5576040517f08c379a000000000000000000000000000000000000000000000000000000000815260040161089c90612f2e565b60405180910390fd5b6108af8383611433565b505050565b6108c56108bf61142b565b826114ec565b610904576040517f08c379a00000000000000000000000000000000000000000000000000000000081526004016108fb9061304e565b60405180910390fd5b61090f8383836115ca565b505050565b61091c61142b565b73ffffffffffffffffffffffffffffffffffffffff1661093a610e9b565b73ffffffffffffffffffffffffffffffffffffffff1614610990576040517f08c379a000000000000000000000000000000000000000000000000000000000815260040161098790612fee565b60405180910390fd5b8060fd90805190602001906109a6929190612508565b5050565b6109b261142b565b73ffffffffffffffffffffffffffffffffffffffff166109d0610e9b565b73ffffffffffffffffffffffffffffffffffffffff1614610a26576040517f08c379a0000000000000000000000000000000000000000000000000000000008152600401610a1d90612fee565b60405180910390fd5b610a2f81611831565b50565b610a4d83838360405180602001604052806000815250610f72565b505050565b6000806067600084815260200190815260200160002060009054906101000a900473ffffffffffffffffffffffffffffffffffffffff169050600073ffffffffffffffffffffffffffffffffffffffff168173ffffffffffffffffffffffffffffffffffffffff161415610afb576040517f08c379a0000000000000000000000000000000000000000000000000000000008152600401610af290612f6e565b60405180910390fd5b80915050919050565b60008073ffffffffffffffffffffffffffffffffffffffff168273ffffffffffffffffffffffffffffffffffffffff161415610b75576040517f08c379a0000000000000000000000000000000000000000000000000000000008152600401610b6c90612f4e565b60405180910390fd5b606860008373ffffffffffffffffffffffffffffffffffffffff1673ffffffffffffffffffffffffffffffffffffffff168152602001908152602001600020549050919050565b610bc461142b565b73ffffffffffffffffffffffffffffffffffffffff16610be2610e9b565b73ffffffffffffffffffffffffffffffffffffffff1614610c38576040517f08c379a0000000000000000000000000000000000000000000000000000000008152600401610c2f90612fee565b60405180910390fd5b610c4260006118c1565b565b600080610c5160fc611987565b905060648110610c96576040517f08c379a0000000000000000000000000000000000000000000000000000000008152600401610c8d9061306e565b60405180910390fd5b67011c37937e080000341015610ce1576040517f08c379a0000000000000000000000000000000000000000000000000000000008152600401610cd8906130ae565b60405180910390fd5b610ceb60fc611995565b6000610cf760fc611987565b9050610d0384826119ab565b8092505050919050565b600060019054906101000a900460ff16610d355760008054906101000a900460ff1615610d3e565b610d3d6119c9565b5b610d7d576040517f08c379a0000000000000000000000000000000000000000000000000000000008152600401610d7490612f8e565b60405180910390fd5b60008060019054906101000a900460ff161590508015610dcd576001600060016101000a81548160ff02191690831515021790555060016000806101000a81548160ff0219169083151502179055505b610e416040518060400160405280600d81526020017f5a5a436f6c6c656374696f6e73000000000000000000000000000000000000008152506040518060400160405280600681526020017f5a5a4265617200000000000000000000000000000000000000000000000000008152506119da565b610e49611a37565b610e51611a90565b6040518060200160405280600081525060fd9080519060200190610e76929190612508565b508015610e985760008060016101000a81548160ff0219169083151502179055505b50565b6000609760009054906101000a900473ffffffffffffffffffffffffffffffffffffffff16905090565b606481565b606060668054610ed990613336565b80601f0160208091040260200160405190810160405280929190818152602001828054610f0590613336565b8015610f525780601f10610f2757610100808354040283529160200191610f52565b820191906000526020600020905b815481529060010190602001808311610f3557829003601f168201915b5050505050905090565b610f6e610f6761142b565b8383611ae9565b5050565b610f83610f7d61142b565b836114ec565b610fc2576040517f08c379a0000000000000000000000000000000000000000000000000000000008152600401610fb99061304e565b60405180910390fd5b610fce84848484611c56565b50505050565b67011c37937e08000081565b6060610feb826113bf565b61102a576040517f08c379a00000000000000000000000000000000000000000000000000000000081526004016110219061300e565b60405180910390fd5b6000611034611cb2565b90506000815111611054576040518060200160405280600081525061107f565b8061105e84611d44565b60405160200161106f929190612d6b565b6040516020818303038152906040525b915050919050565b60fd805461109490613336565b80601f01602080910402602001604051908101604052809291908181526020018280546110c090613336565b801561110d5780601f106110e25761010080835404028352916020019161110d565b820191906000526020600020905b8154815290600101906020018083116110f057829003601f168201915b505050505081565b600060c960009054906101000a900473ffffffffffffffffffffffffffffffffffffffff1673ffffffffffffffffffffffffffffffffffffffff1663e3a9db1a836040518263ffffffff1660e01b81526004016111729190612d8f565b60206040518083038186803b15801561118a57600080fd5b505afa15801561119e573d6000803e3d6000fd5b505050506040513d601f19601f820116820180604052508101906111c291906129a7565b9050919050565b6000606a60008473ffffffffffffffffffffffffffffffffffffffff1673ffffffffffffffffffffffffffffffffffffffff16815260200190815260200160002060008373ffffffffffffffffffffffffffffffffffffffff1673ffffffffffffffffffffffffffffffffffffffff16815260200190815260200160002060009054906101000a900460ff16905092915050565b61126561142b565b73ffffffffffffffffffffffffffffffffffffffff16611283610e9b565b73ffffffffffffffffffffffffffffffffffffffff16146112d9576040517f08c379a00000000000000000000000000000000000000000000000000000000081526004016112d090612fee565b60405180910390fd5b600073ffffffffffffffffffffffffffffffffffffffff168173ffffffffffffffffffffffffffffffffffffffff161415611349576040517f08c379a000000000000000000000000000000000000000000000000000000000815260040161134090612e6e565b60405180910390fd5b611352816118c1565b50565b60007f01ffc9a7000000000000000000000000000000000000000000000000000000007bffffffffffffffffffffffffffffffffffffffffffffffffffffffff1916827bffffffffffffffffffffffffffffffffffffffffffffffffffffffff1916149050919050565b60008073ffffffffffffffffffffffffffffffffffffffff166067600084815260200190815260200160002060009054906101000a900473ffffffffffffffffffffffffffffffffffffffff1673ffffffffffffffffffffffffffffffffffffffff1614159050919050565b600033905090565b816069600083815260200190815260200160002060006101000a81548173ffffffffffffffffffffffffffffffffffffffff021916908373ffffffffffffffffffffffffffffffffffffffff160217905550808273ffffffffffffffffffffffffffffffffffffffff166114a683610a52565b73ffffffffffffffffffffffffffffffffffffffff167f8c5be1e5ebec7d5bd14f71427d1e84f3dd0314c0f7b2291e5b200ac8c7c3b92560405160405180910390a45050565b60006114f7826113bf565b611536576040517f08c379a000000000000000000000000000000000000000000000000000000000815260040161152d90612f0e565b60405180910390fd5b600061154183610a52565b90508073ffffffffffffffffffffffffffffffffffffffff168473ffffffffffffffffffffffffffffffffffffffff1614806115b057508373ffffffffffffffffffffffffffffffffffffffff1661159884610717565b73ffffffffffffffffffffffffffffffffffffffff16145b806115c157506115c081856111c9565b5b91505092915050565b8273ffffffffffffffffffffffffffffffffffffffff166115ea82610a52565b73ffffffffffffffffffffffffffffffffffffffff1614611640576040517f08c379a000000000000000000000000000000000000000000000000000000000815260040161163790612e8e565b60405180910390fd5b600073ffffffffffffffffffffffffffffffffffffffff168273ffffffffffffffffffffffffffffffffffffffff1614156116b0576040517f08c379a00000000000000000000000000000000000000000000000000000000081526004016116a790612ece565b60405180910390fd5b6116bb838383611ef1565b6116c6600082611433565b6001606860008573ffffffffffffffffffffffffffffffffffffffff1673ffffffffffffffffffffffffffffffffffffffff1681526020019081526020016000206000828254611716919061323a565b925050819055506001606860008473ffffffffffffffffffffffffffffffffffffffff1673ffffffffffffffffffffffffffffffffffffffff168152602001908152602001600020600082825461176d91906131b3565b92505081905550816067600083815260200190815260200160002060006101000a81548173ffffffffffffffffffffffffffffffffffffffff021916908373ffffffffffffffffffffffffffffffffffffffff160217905550808273ffffffffffffffffffffffffffffffffffffffff168473ffffffffffffffffffffffffffffffffffffffff167fddf252ad1be2c89b69c2b068fc378daa952ba7f163c4a11628f55a4df523b3ef60405160405180910390a461182c838383611ef6565b505050565b60c960009054906101000a900473ffffffffffffffffffffffffffffffffffffffff1673ffffffffffffffffffffffffffffffffffffffff166351cff8d9826040518263ffffffff1660e01b815260040161188c9190612daa565b600060405180830381600087803b1580156118a657600080fd5b505af11580156118ba573d6000803e3d6000fd5b5050505050565b6000609760009054906101000a900473ffffffffffffffffffffffffffffffffffffffff16905081609760006101000a81548173ffffffffffffffffffffffffffffffffffffffff021916908373ffffffffffffffffffffffffffffffffffffffff1602179055508173ffffffffffffffffffffffffffffffffffffffff168173ffffffffffffffffffffffffffffffffffffffff167f8be0079c531659141344cd1fd0a4f28419497f9722a3daafe3b4186f6b6457e060405160405180910390a35050565b600081600001549050919050565b6001816000016000828254019250508190555050565b6119c5828260405180602001604052806000815250611efb565b5050565b60006119d430611f56565b15905090565b600060019054906101000a900460ff16611a29576040517f08c379a0000000000000000000000000000000000000000000000000000000008152600401611a209061308e565b60405180910390fd5b611a338282611f79565b5050565b600060019054906101000a900460ff16611a86576040517f08c379a0000000000000000000000000000000000000000000000000000000008152600401611a7d9061308e565b60405180910390fd5b611a8e611ffa565b565b600060019054906101000a900460ff16611adf576040517f08c379a0000000000000000000000000000000000000000000000000000000008152600401611ad69061308e565b60405180910390fd5b611ae761205b565b565b8173ffffffffffffffffffffffffffffffffffffffff168373ffffffffffffffffffffffffffffffffffffffff161415611b58576040517f08c379a0000000000000000000000000000000000000000000000000000000008152600401611b4f90612eee565b60405180910390fd5b80606a60008573ffffffffffffffffffffffffffffffffffffffff1673ffffffffffffffffffffffffffffffffffffffff16815260200190815260200160002060008473ffffffffffffffffffffffffffffffffffffffff1673ffffffffffffffffffffffffffffffffffffffff16815260200190815260200160002060006101000a81548160ff0219169083151502179055508173ffffffffffffffffffffffffffffffffffffffff168373ffffffffffffffffffffffffffffffffffffffff167f17307eab39ab6107e8899845ad3d59bd9653f200f220920489ca2b5937696c3183604051611c499190612e11565b60405180910390a3505050565b611c618484846115ca565b611c6d84848484612197565b611cac576040517f08c379a0000000000000000000000000000000000000000000000000000000008152600401611ca390612e4e565b60405180910390fd5b50505050565b606060fd8054611cc190613336565b80601f0160208091040260200160405190810160405280929190818152602001828054611ced90613336565b8015611d3a5780601f10611d0f57610100808354040283529160200191611d3a565b820191906000526020600020905b815481529060010190602001808311611d1d57829003601f168201915b5050505050905090565b60606000821415611d8c576040518060400160405280600181526020017f30000000000000000000000000000000000000000000000000000000000000008152509050611eec565b600082905060005b60008214611dbe578080611da790613399565b915050600a82611db79190613209565b9150611d94565b60008167ffffffffffffffff811115611e00577f4e487b7100000000000000000000000000000000000000000000000000000000600052604160045260246000fd5b6040519080825280601f01601f191660200182016040528015611e325781602001600182028036833780820191505090505b5090505b60008514611ee557600182611e4b919061323a565b9150600a85611e5a91906133e2565b6030611e6691906131b3565b60f81b818381518110611ea2577f4e487b7100000000000000000000000000000000000000000000000000000000600052603260045260246000fd5b60200101907effffffffffffffffffffffffffffffffffffffffffffffffffffffffffffff1916908160001a905350600a85611ede9190613209565b9450611e36565b8093505050505b919050565b505050565b505050565b611f05838361232e565b611f126000848484612197565b611f51576040517f08c379a0000000000000000000000000000000000000000000000000000000008152600401611f4890612e4e565b60405180910390fd5b505050565b6000808273ffffffffffffffffffffffffffffffffffffffff163b119050919050565b600060019054906101000a900460ff16611fc8576040517f08c379a0000000000000000000000000000000000000000000000000000000008152600401611fbf9061308e565b60405180910390fd5b8160659080519060200190611fde929190612508565b508060669080519060200190611ff5929190612508565b505050565b600060019054906101000a900460ff16612049576040517f08c379a00000000000000000000000000000000000000000000000000000000081526004016120409061308e565b60405180910390fd5b61205961205461142b565b6118c1565b565b600060019054906101000a900460ff166120aa576040517f08c379a00000000000000000000000000000000000000000000000000000000081526004016120a19061308e565b60405180910390fd5b6040516120b69061258e565b604051809103906000f0801580156120d2573d6000803e3d6000fd5b5060c960006101000a81548173ffffffffffffffffffffffffffffffffffffffff021916908373ffffffffffffffffffffffffffffffffffffffff16021790555060c960009054906101000a900473ffffffffffffffffffffffffffffffffffffffff1673ffffffffffffffffffffffffffffffffffffffff16638129fc1c6040518163ffffffff1660e01b8152600401600060405180830381600087803b15801561217d57600080fd5b505af1158015612191573d6000803e3d6000fd5b50505050565b60006121b88473ffffffffffffffffffffffffffffffffffffffff16611f56565b15612321578373ffffffffffffffffffffffffffffffffffffffff1663150b7a026121e161142b565b8786866040518563ffffffff1660e01b81526004016122039493929190612dc5565b602060405180830381600087803b15801561221d57600080fd5b505af192505050801561224e57506040513d601f19601f8201168201806040525081019061224b9190612914565b60015b6122d1573d806000811461227e576040519150601f19603f3d011682016040523d82523d6000602084013e612283565b606091505b506000815114156122c9576040517f08c379a00000000000000000000000000000000000000000000000000000000081526004016122c090612e4e565b60405180910390fd5b805181602001fd5b63150b7a0260e01b7bffffffffffffffffffffffffffffffffffffffffffffffffffffffff1916817bffffffffffffffffffffffffffffffffffffffffffffffffffffffff191614915050612326565b600190505b949350505050565b600073ffffffffffffffffffffffffffffffffffffffff168273ffffffffffffffffffffffffffffffffffffffff16141561239e576040517f08c379a000000000000000000000000000000000000000000000000000000000815260040161239590612fae565b60405180910390fd5b6123a7816113bf565b156123e7576040517f08c379a00000000000000000000000000000000000000000000000000000000081526004016123de90612eae565b60405180910390fd5b6123f360008383611ef1565b6001606860008473ffffffffffffffffffffffffffffffffffffffff1673ffffffffffffffffffffffffffffffffffffffff168152602001908152602001600020600082825461244391906131b3565b92505081905550816067600083815260200190815260200160002060006101000a81548173ffffffffffffffffffffffffffffffffffffffff021916908373ffffffffffffffffffffffffffffffffffffffff160217905550808273ffffffffffffffffffffffffffffffffffffffff16600073ffffffffffffffffffffffffffffffffffffffff167fddf252ad1be2c89b69c2b068fc378daa952ba7f163c4a11628f55a4df523b3ef60405160405180910390a461250460008383611ef6565b5050565b82805461251490613336565b90600052602060002090601f016020900481019282612536576000855561257d565b82601f1061254f57805160ff191683800117855561257d565b8280016001018555821561257d579182015b8281111561257c578251825591602001919060010190612561565b5b50905061258a919061259b565b5090565b610f4f80613ac283390190565b5b808211156125b457600081600090555060010161259c565b5090565b60006125cb6125c68461310e565b6130e9565b9050828152602081018484840111156125e357600080fd5b6125ee8482856132f4565b509392505050565b60006126096126048461313f565b6130e9565b90508281526020810184848401111561262157600080fd5b61262c8482856132f4565b509392505050565b60008135905061264381613a4e565b92915050565b60008135905061265881613a65565b92915050565b60008135905061266d81613a7c565b92915050565b60008135905061268281613a93565b92915050565b60008151905061269781613a93565b92915050565b600082601f8301126126ae57600080fd5b81356126be8482602086016125b8565b91505092915050565b600082601f8301126126d857600080fd5b81356126e88482602086016125f6565b91505092915050565b60008135905061270081613aaa565b92915050565b60008151905061271581613aaa565b92915050565b60006020828403121561272d57600080fd5b600061273b84828501612634565b91505092915050565b60006020828403121561275657600080fd5b600061276484828501612649565b91505092915050565b6000806040838503121561278057600080fd5b600061278e85828601612634565b925050602061279f85828601612634565b9150509250929050565b6000806000606084860312156127be57600080fd5b60006127cc86828701612634565b93505060206127dd86828701612634565b92505060406127ee868287016126f1565b9150509250925092565b6000806000806080858703121561280e57600080fd5b600061281c87828801612634565b945050602061282d87828801612634565b935050604061283e878288016126f1565b925050606085013567ffffffffffffffff81111561285b57600080fd5b6128678782880161269d565b91505092959194509250565b6000806040838503121561288657600080fd5b600061289485828601612634565b92505060206128a58582860161265e565b9150509250929050565b600080604083850312156128c257600080fd5b60006128d085828601612634565b92505060206128e1858286016126f1565b9150509250929050565b6000602082840312156128fd57600080fd5b600061290b84828501612673565b91505092915050565b60006020828403121561292657600080fd5b600061293484828501612688565b91505092915050565b60006020828403121561294f57600080fd5b600082013567ffffffffffffffff81111561296957600080fd5b612975848285016126c7565b91505092915050565b60006020828403121561299057600080fd5b600061299e848285016126f1565b91505092915050565b6000602082840312156129b957600080fd5b60006129c784828501612706565b91505092915050565b6129d981613280565b82525050565b6129e88161326e565b82525050565b6129f781613292565b82525050565b6000612a0882613170565b612a128185613186565b9350612a22818560208601613303565b612a2b816134cf565b840191505092915050565b6000612a418261317b565b612a4b8185613197565b9350612a5b818560208601613303565b612a64816134cf565b840191505092915050565b6000612a7a8261317b565b612a8481856131a8565b9350612a94818560208601613303565b80840191505092915050565b6000612aad603283613197565b9150612ab8826134e0565b604082019050919050565b6000612ad0602683613197565b9150612adb8261352f565b604082019050919050565b6000612af3602583613197565b9150612afe8261357e565b604082019050919050565b6000612b16601c83613197565b9150612b21826135cd565b602082019050919050565b6000612b39602483613197565b9150612b44826135f6565b604082019050919050565b6000612b5c601983613197565b9150612b6782613645565b602082019050919050565b6000612b7f602c83613197565b9150612b8a8261366e565b604082019050919050565b6000612ba2603883613197565b9150612bad826136bd565b604082019050919050565b6000612bc5602a83613197565b9150612bd08261370c565b604082019050919050565b6000612be8602983613197565b9150612bf38261375b565b604082019050919050565b6000612c0b602e83613197565b9150612c16826137aa565b604082019050919050565b6000612c2e602083613197565b9150612c39826137f9565b602082019050919050565b6000612c51602c83613197565b9150612c5c82613822565b604082019050919050565b6000612c74602083613197565b9150612c7f82613871565b602082019050919050565b6000612c97602f83613197565b9150612ca28261389a565b604082019050919050565b6000612cba602183613197565b9150612cc5826138e9565b604082019050919050565b6000612cdd603183613197565b9150612ce882613938565b604082019050919050565b6000612d00601283613197565b9150612d0b82613987565b602082019050919050565b6000612d23602b83613197565b9150612d2e826139b0565b604082019050919050565b6000612d46603f83613197565b9150612d51826139ff565b604082019050919050565b612d65816132ea565b82525050565b6000612d778285612a6f565b9150612d838284612a6f565b91508190509392505050565b6000602082019050612da460008301846129df565b92915050565b6000602082019050612dbf60008301846129d0565b92915050565b6000608082019050612dda60008301876129df565b612de760208301866129df565b612df46040830185612d5c565b8181036060830152612e0681846129fd565b905095945050505050565b6000602082019050612e2660008301846129ee565b92915050565b60006020820190508181036000830152612e468184612a36565b905092915050565b60006020820190508181036000830152612e6781612aa0565b9050919050565b60006020820190508181036000830152612e8781612ac3565b9050919050565b60006020820190508181036000830152612ea781612ae6565b9050919050565b60006020820190508181036000830152612ec781612b09565b9050919050565b60006020820190508181036000830152612ee781612b2c565b9050919050565b60006020820190508181036000830152612f0781612b4f565b9050919050565b60006020820190508181036000830152612f2781612b72565b9050919050565b60006020820190508181036000830152612f4781612b95565b9050919050565b60006020820190508181036000830152612f6781612bb8565b9050919050565b60006020820190508181036000830152612f8781612bdb565b9050919050565b60006020820190508181036000830152612fa781612bfe565b9050919050565b60006020820190508181036000830152612fc781612c21565b9050919050565b60006020820190508181036000830152612fe781612c44565b9050919050565b6000602082019050818103600083015261300781612c67565b9050919050565b6000602082019050818103600083015261302781612c8a565b9050919050565b6000602082019050818103600083015261304781612cad565b9050919050565b6000602082019050818103600083015261306781612cd0565b9050919050565b6000602082019050818103600083015261308781612cf3565b9050919050565b600060208201905081810360008301526130a781612d16565b9050919050565b600060208201905081810360008301526130c781612d39565b9050919050565b60006020820190506130e36000830184612d5c565b92915050565b60006130f3613104565b90506130ff8282613368565b919050565b6000604051905090565b600067ffffffffffffffff821115613129576131286134a0565b5b613132826134cf565b9050602081019050919050565b600067ffffffffffffffff82111561315a576131596134a0565b5b613163826134cf565b9050602081019050919050565b600081519050919050565b600081519050919050565b600082825260208201905092915050565b600082825260208201905092915050565b600081905092915050565b60006131be826132ea565b91506131c9836132ea565b9250827fffffffffffffffffffffffffffffffffffffffffffffffffffffffffffffffff038211156131fe576131fd613413565b5b828201905092915050565b6000613214826132ea565b915061321f836132ea565b92508261322f5761322e613442565b5b828204905092915050565b6000613245826132ea565b9150613250836132ea565b92508282101561326357613262613413565b5b828203905092915050565b6000613279826132ca565b9050919050565b600061328b826132ca565b9050919050565b60008115159050919050565b60007fffffffff0000000000000000000000000000000000000000000000000000000082169050919050565b600073ffffffffffffffffffffffffffffffffffffffff82169050919050565b6000819050919050565b82818337600083830152505050565b60005b83811015613321578082015181840152602081019050613306565b83811115613330576000848401525b50505050565b6000600282049050600182168061334e57607f821691505b6020821081141561336257613361613471565b5b50919050565b613371826134cf565b810181811067ffffffffffffffff821117156133905761338f6134a0565b5b80604052505050565b60006133a4826132ea565b91507fffffffffffffffffffffffffffffffffffffffffffffffffffffffffffffffff8214156133d7576133d6613413565b5b600182019050919050565b60006133ed826132ea565b91506133f8836132ea565b92508261340857613407613442565b5b828206905092915050565b7f4e487b7100000000000000000000000000000000000000000000000000000000600052601160045260246000fd5b7f4e487b7100000000000000000000000000000000000000000000000000000000600052601260045260246000fd5b7f4e487b7100000000000000000000000000000000000000000000000000000000600052602260045260246000fd5b7f4e487b7100000000000000000000000000000000000000000000000000000000600052604160045260246000fd5b6000601f19601f8301169050919050565b7f4552433732313a207472616e7366657220746f206e6f6e20455243373231526560008201527f63656976657220696d706c656d656e7465720000000000000000000000000000602082015250565b7f4f776e61626c653a206e6577206f776e657220697320746865207a65726f206160008201527f6464726573730000000000000000000000000000000000000000000000000000602082015250565b7f4552433732313a207472616e736665722066726f6d20696e636f72726563742060008201527f6f776e6572000000000000000000000000000000000000000000000000000000602082015250565b7f4552433732313a20746f6b656e20616c7265616479206d696e74656400000000600082015250565b7f4552433732313a207472616e7366657220746f20746865207a65726f2061646460008201527f7265737300000000000000000000000000000000000000000000000000000000602082015250565b7f4552433732313a20617070726f766520746f2063616c6c657200000000000000600082015250565b7f4552433732313a206f70657261746f7220717565727920666f72206e6f6e657860008201527f697374656e7420746f6b656e0000000000000000000000000000000000000000602082015250565b7f4552433732313a20617070726f76652063616c6c6572206973206e6f74206f7760008201527f6e6572206e6f7220617070726f76656420666f7220616c6c0000000000000000602082015250565b7f4552433732313a2062616c616e636520717565727920666f7220746865207a6560008201527f726f206164647265737300000000000000000000000000000000000000000000602082015250565b7f4552433732313a206f776e657220717565727920666f72206e6f6e657869737460008201527f656e7420746f6b656e0000000000000000000000000000000000000000000000602082015250565b7f496e697469616c697a61626c653a20636f6e747261637420697320616c72656160008201527f647920696e697469616c697a6564000000000000000000000000000000000000602082015250565b7f4552433732313a206d696e7420746f20746865207a65726f2061646472657373600082015250565b7f4552433732313a20617070726f76656420717565727920666f72206e6f6e657860008201527f697374656e7420746f6b656e0000000000000000000000000000000000000000602082015250565b7f4f776e61626c653a2063616c6c6572206973206e6f7420746865206f776e6572600082015250565b7f4552433732314d657461646174613a2055524920717565727920666f72206e6f60008201527f6e6578697374656e7420746f6b656e0000000000000000000000000000000000602082015250565b7f4552433732313a20617070726f76616c20746f2063757272656e74206f776e6560008201527f7200000000000000000000000000000000000000000000000000000000000000602082015250565b7f4552433732313a207472616e736665722063616c6c6572206973206e6f74206f60008201527f776e6572206e6f7220617070726f766564000000000000000000000000000000602082015250565b7f4d617820737570706c7920726561636865640000000000000000000000000000600082015250565b7f496e697469616c697a61626c653a20636f6e7472616374206973206e6f74206960008201527f6e697469616c697a696e67000000000000000000000000000000000000000000602082015250565b7f5472616e73616374696f6e2076616c7565206c657373207468616e207468652060008201527f6d696e742070726963652c20776869636820697320302e303820657468657200602082015250565b613a578161326e565b8114613a6257600080fd5b50565b613a6e81613280565b8114613a7957600080fd5b50565b613a8581613292565b8114613a9057600080fd5b50565b613a9c8161329e565b8114613aa757600080fd5b50565b613ab3816132ea565b8114613abe57600080fd5b5056fe608060405234801561001057600080fd5b50610f2f806100206000396000f3fe6080604052600436106100705760003560e01c80638da5cb5b1161004e5780638da5cb5b146100cc578063e3a9db1a146100f7578063f2fde38b14610134578063f340fa011461015d57610070565b806351cff8d914610075578063715018a61461009e5780638129fc1c146100b5575b600080fd5b34801561008157600080fd5b5061009c60048036038101906100979190610a04565b610179565b005b3480156100aa57600080fd5b506100b36102f9565b005b3480156100c157600080fd5b506100ca610381565b005b3480156100d857600080fd5b506100e161046d565b6040516100ee9190610b55565b60405180910390f35b34801561010357600080fd5b5061011e600480360381019061011991906109db565b610497565b60405161012b9190610c30565b60405180910390f35b34801561014057600080fd5b5061015b600480360381019061015691906109db565b6104e0565b005b610177600480360381019061017291906109db565b6105d8565b005b610181610701565b73ffffffffffffffffffffffffffffffffffffffff1661019f61046d565b73ffffffffffffffffffffffffffffffffffffffff16146101f5576040517f08c379a00000000000000000000000000000000000000000000000000000000081526004016101ec90610bf0565b60405180910390fd5b6000606560008373ffffffffffffffffffffffffffffffffffffffff1673ffffffffffffffffffffffffffffffffffffffff1681526020019081526020016000205490506000606560008473ffffffffffffffffffffffffffffffffffffffff1673ffffffffffffffffffffffffffffffffffffffff168152602001908152602001600020819055506102a7818373ffffffffffffffffffffffffffffffffffffffff1661070990919063ffffffff16565b8173ffffffffffffffffffffffffffffffffffffffff167f7084f5476618d8e60b11ef0d7d3f06914655adb8793e28ff7f018d4c76d505d5826040516102ed9190610c30565b60405180910390a25050565b610301610701565b73ffffffffffffffffffffffffffffffffffffffff1661031f61046d565b73ffffffffffffffffffffffffffffffffffffffff1614610375576040517f08c379a000000000000000000000000000000000000000000000000000000000815260040161036c90610bf0565b60405180910390fd5b61037f60006107fd565b565b600060019054906101000a900460ff166103a95760008054906101000a900460ff16156103b2565b6103b16108c3565b5b6103f1576040517f08c379a00000000000000000000000000000000000000000000000000000000081526004016103e890610bd0565b60405180910390fd5b60008060019054906101000a900460ff161590508015610441576001600060016101000a81548160ff02191690831515021790555060016000806101000a81548160ff0219169083151502179055505b6104496108d4565b801561046a5760008060016101000a81548160ff0219169083151502179055505b50565b6000603360009054906101000a900473ffffffffffffffffffffffffffffffffffffffff16905090565b6000606560008373ffffffffffffffffffffffffffffffffffffffff1673ffffffffffffffffffffffffffffffffffffffff168152602001908152602001600020549050919050565b6104e8610701565b73ffffffffffffffffffffffffffffffffffffffff1661050661046d565b73ffffffffffffffffffffffffffffffffffffffff161461055c576040517f08c379a000000000000000000000000000000000000000000000000000000000815260040161055390610bf0565b60405180910390fd5b600073ffffffffffffffffffffffffffffffffffffffff168173ffffffffffffffffffffffffffffffffffffffff1614156105cc576040517f08c379a00000000000000000000000000000000000000000000000000000000081526004016105c390610b70565b60405180910390fd5b6105d5816107fd565b50565b6105e0610701565b73ffffffffffffffffffffffffffffffffffffffff166105fe61046d565b73ffffffffffffffffffffffffffffffffffffffff1614610654576040517f08c379a000000000000000000000000000000000000000000000000000000000815260040161064b90610bf0565b60405180910390fd5b600034905080606560008473ffffffffffffffffffffffffffffffffffffffff1673ffffffffffffffffffffffffffffffffffffffff16815260200190815260200160002060008282546106a89190610c67565b925050819055508173ffffffffffffffffffffffffffffffffffffffff167f2da466a7b24304f47e87fa2e1e5a81b9831ce54fec19055ce277ca2f39ba42c4826040516106f59190610c30565b60405180910390a25050565b600033905090565b8047101561074c576040517f08c379a000000000000000000000000000000000000000000000000000000000815260040161074390610bb0565b60405180910390fd5b60008273ffffffffffffffffffffffffffffffffffffffff168260405161077290610b40565b60006040518083038185875af1925050503d80600081146107af576040519150601f19603f3d011682016040523d82523d6000602084013e6107b4565b606091505b50509050806107f8576040517f08c379a00000000000000000000000000000000000000000000000000000000081526004016107ef90610b90565b60405180910390fd5b505050565b6000603360009054906101000a900473ffffffffffffffffffffffffffffffffffffffff16905081603360006101000a81548173ffffffffffffffffffffffffffffffffffffffff021916908373ffffffffffffffffffffffffffffffffffffffff1602179055508173ffffffffffffffffffffffffffffffffffffffff168173ffffffffffffffffffffffffffffffffffffffff167f8be0079c531659141344cd1fd0a4f28419497f9722a3daafe3b4186f6b6457e060405160405180910390a35050565b60006108ce3061092d565b15905090565b600060019054906101000a900460ff16610923576040517f08c379a000000000000000000000000000000000000000000000000000000000815260040161091a90610c10565b60405180910390fd5b61092b610950565b565b6000808273ffffffffffffffffffffffffffffffffffffffff163b119050919050565b600060019054906101000a900460ff1661099f576040517f08c379a000000000000000000000000000000000000000000000000000000000815260040161099690610c10565b60405180910390fd5b6109af6109aa610701565b6107fd565b565b6000813590506109c081610ecb565b92915050565b6000813590506109d581610ee2565b92915050565b6000602082840312156109ed57600080fd5b60006109fb848285016109b1565b91505092915050565b600060208284031215610a1657600080fd5b6000610a24848285016109c6565b91505092915050565b610a3681610cbd565b82525050565b6000610a49602683610c56565b9150610a5482610d3a565b604082019050919050565b6000610a6c603a83610c56565b9150610a7782610d89565b604082019050919050565b6000610a8f601d83610c56565b9150610a9a82610dd8565b602082019050919050565b6000610ab2602e83610c56565b9150610abd82610e01565b604082019050919050565b6000610ad5602083610c56565b9150610ae082610e50565b602082019050919050565b6000610af8600083610c4b565b9150610b0382610e79565b600082019050919050565b6000610b1b602b83610c56565b9150610b2682610e7c565b604082019050919050565b610b3a81610d01565b82525050565b6000610b4b82610aeb565b9150819050919050565b6000602082019050610b6a6000830184610a2d565b92915050565b60006020820190508181036000830152610b8981610a3c565b9050919050565b60006020820190508181036000830152610ba981610a5f565b9050919050565b60006020820190508181036000830152610bc981610a82565b9050919050565b60006020820190508181036000830152610be981610aa5565b9050919050565b60006020820190508181036000830152610c0981610ac8565b9050919050565b60006020820190508181036000830152610c2981610b0e565b9050919050565b6000602082019050610c456000830184610b31565b92915050565b600081905092915050565b600082825260208201905092915050565b6000610c7282610d01565b9150610c7d83610d01565b9250827fffffffffffffffffffffffffffffffffffffffffffffffffffffffffffffffff03821115610cb257610cb1610d0b565b5b828201905092915050565b6000610cc882610ce1565b9050919050565b6000610cda82610ce1565b9050919050565b600073ffffffffffffffffffffffffffffffffffffffff82169050919050565b6000819050919050565b7f4e487b7100000000000000000000000000000000000000000000000000000000600052601160045260246000fd5b7f4f776e61626c653a206e6577206f776e657220697320746865207a65726f206160008201527f6464726573730000000000000000000000000000000000000000000000000000602082015250565b7f416464726573733a20756e61626c6520746f2073656e642076616c75652c207260008201527f6563697069656e74206d61792068617665207265766572746564000000000000602082015250565b7f416464726573733a20696e73756666696369656e742062616c616e6365000000600082015250565b7f496e697469616c697a61626c653a20636f6e747261637420697320616c72656160008201527f647920696e697469616c697a6564000000000000000000000000000000000000602082015250565b7f4f776e61626c653a2063616c6c6572206973206e6f7420746865206f776e6572600082015250565b50565b7f496e697469616c697a61626c653a20636f6e7472616374206973206e6f74206960008201527f6e697469616c697a696e67000000000000000000000000000000000000000000602082015250565b610ed481610cbd565b8114610edf57600080fd5b50565b610eeb81610ccf565b8114610ef657600080fd5b5056fea2646970667358221220a8e0a6ce99cdfe6b766380d1c6ef44b0c8484d9b596a933e56d338417f18b23764736f6c63430008030033a264697066735822122038ee4f49f470ac235a5a4b6ebd15a07c8258ad9f0d3434c5469971f4dfb9c88a64736f6c63430008030033",
  "linkReferences": {},
  "deployedLinkReferences": {}
}