{
  "_format": "hh-sol-artifact-1",
  "contractName": "EscrowUpgradeable",
  "sourceName": "@openzeppelin/contracts-upgradeable/utils/escrow/EscrowUpgradeable.sol",
  "abi": [
    {
      "anonymous": false,
      "inputs": [
        {
          "indexed": true,
          "internalType": "address",
          "name": "payee",
          "type": "address"
        },
        {
          "indexed": false,
          "internalType": "uint256",
          "name": "weiAmount",
          "type": "uint256"
        }
      ],
      "name": "Deposited",
      "type": "event"
    },
    {
      "anonymous": false,
      "inputs": [
        {
          "indexed": true,
          "internalType": "address",
          "name": "previousOwner",
          "type": "address"
        },
        {
          "indexed": true,
          "internalType": "address",
          "name": "newOwner",
          "type": "address"
        }
      ],
      "name": "OwnershipTransferred",
      "type": "event"
    },
    {
      "anonymous": false,
      "inputs": [
        {
          "indexed": true,
          "internalType": "address",
          "name": "payee",
          "type": "address"
        },
        {
          "indexed": false,
          "internalType": "uint256",
          "name": "weiAmount",
          "type": "uint256"
        }
      ],
      "name": "Withdrawn",
      "type": "event"
    },
    {
      "inputs": [
        {
          "internalType": "address",
          "name": "payee",
          "type": "address"
        }
      ],
      "name": "deposit",
      "outputs": [],
      "stateMutability": "payable",
      "type": "function"
    },
    {
      "inputs": [
        {
          "internalType": "address",
          "name": "payee",
          "type": "address"
        }
      ],
      "name": "depositsOf",
      "outputs": [
        {
          "internalType": "uint256",
          "name": "",
          "type": "uint256"
        }
      ],
      "stateMutability": "view",
      "type": "function"
    },
    {
      "inputs": [],
      "name": "initialize",
      "outputs": [],
      "stateMutability": "nonpayable",
      "type": "function"
    },
    {
      "inputs": [],
      "name": "owner",
      "outputs": [
        {
          "internalType": "address",
          "name": "",
          "type": "address"
        }
      ],
      "stateMutability": "view",
      "type": "function"
    },
    {
      "inputs": [],
      "name": "renounceOwnership",
      "outputs": [],
      "stateMutability": "nonpayable",
      "type": "function"
    },
    {
      "inputs": [
        {
          "internalType": "address",
          "name": "newOwner",
          "type": "address"
        }
      ],
      "name": "transferOwnership",
      "outputs": [],
      "stateMutability": "nonpayable",
      "type": "function"
    },
    {
      "inputs": [
        {
          "internalType": "address payable",
          "name": "payee",
          "type": "address"
        }
      ],
      "name": "withdraw",
      "outputs": [],
      "stateMutability": "nonpayable",
      "type": "function"
    }
  ],
  "bytecode": "0x608060405234801561001057600080fd5b50610f2f806100206000396000f3fe6080604052600436106100705760003560e01c80638da5cb5b1161004e5780638da5cb5b146100cc578063e3a9db1a146100f7578063f2fde38b14610134578063f340fa011461015d57610070565b806351cff8d914610075578063715018a61461009e5780638129fc1c146100b5575b600080fd5b34801561008157600080fd5b5061009c60048036038101906100979190610a04565b610179565b005b3480156100aa57600080fd5b506100b36102f9565b005b3480156100c157600080fd5b506100ca610381565b005b3480156100d857600080fd5b506100e161046d565b6040516100ee9190610b55565b60405180910390f35b34801561010357600080fd5b5061011e600480360381019061011991906109db565b610497565b60405161012b9190610c30565b60405180910390f35b34801561014057600080fd5b5061015b600480360381019061015691906109db565b6104e0565b005b610177600480360381019061017291906109db565b6105d8565b005b610181610701565b73ffffffffffffffffffffffffffffffffffffffff1661019f61046d565b73ffffffffffffffffffffffffffffffffffffffff16146101f5576040517f08c379a00000000000000000000000000000000000000000000000000000000081526004016101ec90610bf0565b60405180910390fd5b6000606560008373ffffffffffffffffffffffffffffffffffffffff1673ffffffffffffffffffffffffffffffffffffffff1681526020019081526020016000205490506000606560008473ffffffffffffffffffffffffffffffffffffffff1673ffffffffffffffffffffffffffffffffffffffff168152602001908152602001600020819055506102a7818373ffffffffffffffffffffffffffffffffffffffff1661070990919063ffffffff16565b8173ffffffffffffffffffffffffffffffffffffffff167f7084f5476618d8e60b11ef0d7d3f06914655adb8793e28ff7f018d4c76d505d5826040516102ed9190610c30565b60405180910390a25050565b610301610701565b73ffffffffffffffffffffffffffffffffffffffff1661031f61046d565b73ffffffffffffffffffffffffffffffffffffffff1614610375576040517f08c379a000000000000000000000000000000000000000000000000000000000815260040161036c90610bf0565b60405180910390fd5b61037f60006107fd565b565b600060019054906101000a900460ff166103a95760008054906101000a900460ff16156103b2565b6103b16108c3565b5b6103f1576040517f08c379a00000000000000000000000000000000000000000000000000000000081526004016103e890610bd0565b60405180910390fd5b60008060019054906101000a900460ff161590508015610441576001600060016101000a81548160ff02191690831515021790555060016000806101000a81548160ff0219169083151502179055505b6104496108d4565b801561046a5760008060016101000a81548160ff0219169083151502179055505b50565b6000603360009054906101000a900473ffffffffffffffffffffffffffffffffffffffff16905090565b6000606560008373ffffffffffffffffffffffffffffffffffffffff1673ffffffffffffffffffffffffffffffffffffffff168152602001908152602001600020549050919050565b6104e8610701565b73ffffffffffffffffffffffffffffffffffffffff1661050661046d565b73ffffffffffffffffffffffffffffffffffffffff161461055c576040517f08c379a000000000000000000000000000000000000000000000000000000000815260040161055390610bf0565b60405180910390fd5b600073ffffffffffffffffffffffffffffffffffffffff168173ffffffffffffffffffffffffffffffffffffffff1614156105cc576040517f08c379a00000000000000000000000000000000000000000000000000000000081526004016105c390610b70565b60405180910390fd5b6105d5816107fd565b50565b6105e0610701565b73ffffffffffffffffffffffffffffffffffffffff166105fe61046d565b73ffffffffffffffffffffffffffffffffffffffff1614610654576040517f08c379a000000000000000000000000000000000000000000000000000000000815260040161064b90610bf0565b60405180910390fd5b600034905080606560008473ffffffffffffffffffffffffffffffffffffffff1673ffffffffffffffffffffffffffffffffffffffff16815260200190815260200160002060008282546106a89190610c67565b925050819055508173ffffffffffffffffffffffffffffffffffffffff167f2da466a7b24304f47e87fa2e1e5a81b9831ce54fec19055ce277ca2f39ba42c4826040516106f59190610c30565b60405180910390a25050565b600033905090565b8047101561074c576040517f08c379a000000000000000000000000000000000000000000000000000000000815260040161074390610bb0565b60405180910390fd5b60008273ffffffffffffffffffffffffffffffffffffffff168260405161077290610b40565b60006040518083038185875af1925050503d80600081146107af576040519150601f19603f3d011682016040523d82523d6000602084013e6107b4565b606091505b50509050806107f8576040517f08c379a00000000000000000000000000000000000000000000000000000000081526004016107ef90610b90565b60405180910390fd5b505050565b6000603360009054906101000a900473ffffffffffffffffffffffffffffffffffffffff16905081603360006101000a81548173ffffffffffffffffffffffffffffffffffffffff021916908373ffffffffffffffffffffffffffffffffffffffff1602179055508173ffffffffffffffffffffffffffffffffffffffff168173ffffffffffffffffffffffffffffffffffffffff167f8be0079c531659141344cd1fd0a4f28419497f9722a3daafe3b4186f6b6457e060405160405180910390a35050565b60006108ce3061092d565b15905090565b600060019054906101000a900460ff16610923576040517f08c379a000000000000000000000000000000000000000000000000000000000815260040161091a90610c10565b60405180910390fd5b61092b610950565b565b6000808273ffffffffffffffffffffffffffffffffffffffff163b119050919050565b600060019054906101000a900460ff1661099f576040517f08c379a000000000000000000000000000000000000000000000000000000000815260040161099690610c10565b60405180910390fd5b6109af6109aa610701565b6107fd565b565b6000813590506109c081610ecb565b92915050565b6000813590506109d581610ee2565b92915050565b6000602082840312156109ed57600080fd5b60006109fb848285016109b1565b91505092915050565b600060208284031215610a1657600080fd5b6000610a24848285016109c6565b91505092915050565b610a3681610cbd565b82525050565b6000610a49602683610c56565b9150610a5482610d3a565b604082019050919050565b6000610a6c603a83610c56565b9150610a7782610d89565b604082019050919050565b6000610a8f601d83610c56565b9150610a9a82610dd8565b602082019050919050565b6000610ab2602e83610c56565b9150610abd82610e01565b604082019050919050565b6000610ad5602083610c56565b9150610ae082610e50565b602082019050919050565b6000610af8600083610c4b565b9150610b0382610e79565b600082019050919050565b6000610b1b602b83610c56565b9150610b2682610e7c565b604082019050919050565b610b3a81610d01565b82525050565b6000610b4b82610aeb565b9150819050919050565b6000602082019050610b6a6000830184610a2d565b92915050565b60006020820190508181036000830152610b8981610a3c565b9050919050565b60006020820190508181036000830152610ba981610a5f565b9050919050565b60006020820190508181036000830152610bc981610a82565b9050919050565b60006020820190508181036000830152610be981610aa5565b9050919050565b60006020820190508181036000830152610c0981610ac8565b9050919050565b60006020820190508181036000830152610c2981610b0e565b9050919050565b6000602082019050610c456000830184610b31565b92915050565b600081905092915050565b600082825260208201905092915050565b6000610c7282610d01565b9150610c7d83610d01565b9250827fffffffffffffffffffffffffffffffffffffffffffffffffffffffffffffffff03821115610cb257610cb1610d0b565b5b828201905092915050565b6000610cc882610ce1565b9050919050565b6000610cda82610ce1565b9050919050565b600073ffffffffffffffffffffffffffffffffffffffff82169050919050565b6000819050919050565b7f4e487b7100000000000000000000000000000000000000000000000000000000600052601160045260246000fd5b7f4f776e61626c653a206e6577206f776e657220697320746865207a65726f206160008201527f6464726573730000000000000000000000000000000000000000000000000000602082015250565b7f416464726573733a20756e61626c6520746f2073656e642076616c75652c207260008201527f6563697069656e74206d61792068617665207265766572746564000000000000602082015250565b7f416464726573733a20696e73756666696369656e742062616c616e6365000000600082015250565b7f496e697469616c697a61626c653a20636f6e747261637420697320616c72656160008201527f647920696e697469616c697a6564000000000000000000000000000000000000602082015250565b7f4f776e61626c653a2063616c6c6572206973206e6f7420746865206f776e6572600082015250565b50565b7f496e697469616c697a61626c653a20636f6e7472616374206973206e6f74206960008201527f6e697469616c697a696e67000000000000000000000000000000000000000000602082015250565b610ed481610cbd565b8114610edf57600080fd5b50565b610eeb81610ccf565b8114610ef657600080fd5b5056fea2646970667358221220a8e0a6ce99cdfe6b766380d1c6ef44b0c8484d9b596a933e56d338417f18b23764736f6c63430008030033",
  "linkReferences": {},
  "deployedLinkReferences": {}
}